:1000000005C1000033C1000031C100002FC1000054
:100010002DC100002BC1000029C1000027C1000034
:1000200025C1000023C1000021C100001FC1000044
:100030001DC100001BC1000019C1000017C1000054
:1000400015C1000013C1000011C100000FC1000064
:100050000DC100000BC1000009C10000F8C4000080
:1000600005C10000C1C70000F5C70000FFC00000C7
:10007000FDC00000FBC00000F9C00000F7C0000098
:10008000F5C00000F3C00000F1C00000EFC00000A8
:100090000C9480080C94B608E9C00000E7C000008A
:1000A000E5C00000E3C00000E1C00000DFC00000C8
:1000B000DDC00000DBC00000D9C00000D7C00000D8
:1000C000D5C00000D3C0000014C200000C940C097D
:1000D0000C944209CBC000000C9498090C94CE09F2
:1000E000C5C0000000000A0B02090C0D0E08070332
:1000F00004010000000000000000000000000000FB
:1001000000000000000000000000000000000000EF
:1001100012111000000000000000000000000000AC
:100120000000000000000000000001021020200874
:100130000810204010204080020102010804020142
:1001400001020408102040808040201008040201B1
:10015000800402018040201008040201080402010A
:100160000102040810204080010204081020408091
:1001700005050505070508080808020202020A0A23
:100180000808040404040101010101010101030341
:10019000030303030303040707070C0C0C0C0C0CEC
:1001A0000C0C0202020206060606060606060B0BE9
:1001B0000B0B0B0B0B0B000020002300260029006B
:1001C0002C002F003200000100000301060109018C
:1001D00000002200250028002B002E0031003400F2
:1001E00002010000050108010B01000021002400AC
:1001F00027002A002D003000330001010000040117
:1002000007010A015308DF086B09F70911241FBE13
:10021000CFEFD1E2DEBFCDBF00E00CBF12E0A0E027
:10022000B2E0EAEFF4E100E00BBF02C007900D92EC
:10023000A432B107D9F724E0A4E2B2E001C01D92D4
:10024000A33CB207E1F711E0C6E0D1E000E006C050
:1002500021970109802FFE010E94730AC230D10745
:1002600080E00807A9F7E6D10C947B0AC9CE61119A
:1002700001C0FFC46130E9F362E0FBCF662311F0F7
:1002800061E033C560E0FDCF5DD521E0019709F065
:1002900020E0822F0895FC0191E08091AA04811151
:1002A00090E091830895CF92DF92EF92FF926B01DD
:1002B0007C019F7720E030E040E859E569D287FF74
:1002C00026C020E030E040E05FE3C701B60158D32C
:1002D00087FD0CC020E030E040E05FE3C701B601DD
:1002E000E0D1FF90EF90DF90CF9082C220E030E02D
:1002F00040E05FEBC701B60143D318167CF420E061
:1003000030E0A901C701B6013FD36B017C01C701F1
:10031000B601FF90EF90DF90CF90089520E030E09D
:1003200040E05FE3C701B601BBD1FF90EF90DF90E3
:10033000CF901BC28091AA048F5F8A3018F48093FB
:10034000AA0408951092AA040895CF92DF92EF9222
:10035000FF92CF93C0900102D0900202E09003027E
:10036000F0900402A70196016091B3047091B40467
:100370008091B5049091B6040BD2882341F0C092CD
:10038000B304D092B404E092B504F092B60489E0CC
:100390007BDFC1E090910D02981708F0C0E08091DA
:1003A000C0048C1738F481E09091BF04911180E073
:1003B0008093BF048091BF04882349F160910902B2
:1003C00070910A0280910B0290910C026CDF6B011C
:1003D0007C0120E030E040E853E4DAD16FEF87FFA2
:1003E0000CC020E030E0A901C701B601C9D260E02D
:1003F00087FD03C0C701B601CFD184E03FDFC093C2
:10040000C004CF91FF90EF90DF90CF90089560915E
:100410000502709106028091070290910802D6CFE2
:10042000CF92DF92EF92FF921F93CF93DF93CBEAAD
:10043000D4E0E0E0F2E086858C8B80818D8B1882A1
:1004400081819281A381B48188879987AA87BB879C
:10045000C12CD12C7601C394C982DA82EB82FC8252
:1004600060E089E004DF11E01D831C86CD86DE8616
:10047000EF86F88A61E084E0FADE198BDF91CF9194
:100480001F91FF90EF90DF90CF9008958091AB0483
:10049000811103C081E08093AB048091B704811186
:1004A00003C081E08093B704089540E855E260E01E
:1004B00070E090E080E000C08130910571F01CF4A4
:1004C000892B39F008958230910559F0039769F02E
:1004D000089526E083E392E027C526E080ED92E0D0
:1004E000FBCF26E08DE693E0F7CF26E08AE094E0AC
:1004F000F3CF1F920F920FB60F9211240BB60F92EB
:100500002F933F934F935F936F937F938F939F931B
:10051000AF93BF93EF93FF938FE89DEF90932501E7
:100520008093240134D0FF91EF91BF91AF919F91BF
:100530008F917F916F915F914F913F912F910F908C
:100540000BBE0F900FBE0F901F9018958FE89DEF78
:100550009093250180932401A3E7B0E08C918E7FD6
:100560008C93E0E2F1E080818C7F8083E1E2F1E036
:100570008081877E808380818460808380818C7F7E
:1005800080838C9181608C93089581E00895CF934E
:10059000DF931F921F92CDB7DEB78091260291E0C4
:1005A000980F90932602882369F021E030E0309381
:1005B000290220932802809326020F900F90DF914A
:1005C000CF910895CE01019666DE7894B3DEF8945B
:1005D000809126028150809326028A81882389F0A7
:1005E0008091250291E0980F90932502882349F08D
:1005F00021E030E0309329022093280280932502E5
:10060000DCCF809125028823C1F2809127028111DD
:10061000D4CF81E080932702789497DEF89480917C
:10062000250281508093250280912702815080937A
:100630002702C3CFCF93DF931092C2041092C1045C
:1006400050D233DFC0910F02D0911002198218826C
:10065000E7DE7CDF81E028813981232B09F080E00F
:100660008093C104789478948091C104811107C06B
:100670000DDFF89490E080E0DF91CF91089581E064
:1006800028813981232B09F480E08093C204909162
:10069000C20481E0911180E08093C10476DFE4CF51
:1006A0005058BB27AA270ED01AC10BD130F010D159
:1006B00020F031F49F3F11F41EF400C10EF4E095D8
:1006C000E7FBCDC0E92F1CD180F3BA17620773078F
:1006D0008407950718F071F49EF54BC10EF4E09570
:1006E0000B2EBA2FA02D0B01B90190010C01CA01EC
:1006F000A0011124FF27591B99F0593F50F4503E97
:1007000068F11A16F040A22F232F342F4427585F88
:10071000F3CF469537952795A795F0405395C9F7A0
:100720007EF41F16BA0B620B730B840BBAF0915058
:10073000A1F0FF0FBB1F661F771F881FC2F70EC0F7
:10074000BA0F621F731F841F48F4879577956795CA
:10075000B795F7959E3F08F0B3CF9395880F08F0B3
:100760009927EE0F979587950895ECD080F09F37E5
:1007700040F491110EF4FEC060E070E080E89FE369
:10078000089526F01B16611D711D811D6EC088C065
:1007900042D008F481E00895BBD088F09F5790F0D4
:1007A000B92F9927B751A0F0D1F0660F771F881F96
:1007B000991F1AF0BA95C9F712C0B13081F0D9D09B
:1007C000B1E00895D6C0672F782F8827B85F39F039
:1007D000B93FCCF3869577956795B395D9F73EF4F5
:1007E00090958095709561957F4F8F4F9F4F08959D
:1007F000A9D080F09F3740F491110EF0BBC060E0AB
:1008000070E080E89FEB089526F41B16611D711DB2
:10081000811D2BC045C0990F0008550FAA0BE0E8B9
:10082000FEEF16161706E807F907C0F012161306B2
:10083000E407F50798F0621B730B840B950B39F4F2
:100840000A2661F0232B242B252B21F408950A2658
:1008500009F4A140A6958FEF811D811D089597F998
:100860009F6780E870E060E00895882371F4772343
:1008700021F09850872B762F07C0662311F4992713
:100880000DC09051862B70E060E02AF09A95660FBB
:10089000771F881FDAF7880F9695879597F908953F
:1008A0009F3F31F0915020F4879577956795B795E4
:1008B000880F911D9695879597F908959FEF80EC85
:1008C000089500240A9416161706180609060895B6
:1008D00000240A9412161306140605060895092E1C
:1008E0000394000C11F4882352F0BB0F40F4BF2B8B
:1008F00011F460FF04C06F5F7F4F8F4F9F4F0895CB
:1009000057FD9058440F551F59F05F3F71F04795C0
:10091000880F97FB991F61F09F3F79F087950895A5
:10092000121613061406551FF2CF4695F1DF08C0C4
:10093000161617061806991FF1CF869571056105E1
:1009400008940895E5DFA0F0BEE7B91788F4BB2747
:100950009F3860F41616B11D672F782F8827985F8F
:10096000F7CF869577956795B11D93959639C8F31E
:100970000895E894BB2766277727CB0197F9089558
:100980004ADF08F48FEF08950BD0A9CF9ADF28F043
:100990009FDF18F0952309F062CF90CF1124EACFA2
:1009A000AFDFA0F3959FD1F3950F50E0551F629FE5
:1009B000F001729FBB27F00DB11D639FAA27F00DB8
:1009C000B11DAA1F649F6627B00DA11D661F829FDF
:1009D0002227B00DA11D621F739FB00DA11D621FC4
:1009E000839FA00D611D221F749F3327A00D611DE1
:1009F000231F849F600D211D822F762F6A2F1124C3
:100A00009F5750408AF0E1F088234AF0EE0FFF1F15
:100A1000BB1F661F771F881F91505040A9F79E3F4C
:100A2000510570F01CCFA6CF5F3FECF3983EDCF38E
:100A3000869577956795B795F795E7959F5FC1F789
:100A4000FE2B880F911D9695879597F908951F9213
:100A50000F920FB60F9211242F933F938F939F9372
:100A6000AF93BF9380912B0290912C02A0912D0205
:100A7000B0912E0230912A0223E0230F2D3758F532
:100A80000196A11DB11D20932A0280932B02909301
:100A90002C02A0932D02B0932E0280912F029091F0
:100AA0003002A0913102B09132020196A11DB11D18
:100AB00080932F0290933002A0933102B0933202C0
:100AC000BF91AF919F918F913F912F910F900FBE4A
:100AD0000F901F90189526E8230F0296A11DB11DB7
:100AE000D2CF789484B5826084BD84B5816084BDA2
:100AF00085B5826085BD85B5816085BDEEE6F0E097
:100B0000808181608083E1E8F0E0108280818260F2
:100B10008083808181608083E0E8F0E08081816073
:100B20008083E1EBF0E0808184608083E0EBF0E0A3
:100B3000808181608083E1E9F0E080818260808350
:100B4000808181608083E0E9F0E080818160808342
:100B5000E1EAF0E08081826080838081816080832F
:100B6000E0EAF0E0808181608083E1E2F1E0808171
:100B700082608083808181608083E0E2F1E0808117
:100B800081608083EAE7F0E08081846080838081F7
:100B9000826080838081816080838081806880839F
:100BA0001092C10008958150823108F059C0E82F99
:100BB000F0E08827E252FA4F8F4F95C4FE050206F7
:100BC000F005F605FA05300605060B060F061506B4
:100BD00019061D062306270630062B0631063506A4
:100BE000809180008F7780938000089580918000AD
:100BF0008F7DF9CF80918000877FF5CF84B58F7787
:100C000084BD089584B58F7DFBCF8091B0008F7730
:100C10008093B00008958091B0008F7DF9CF8091CE
:100C200090008F77809390000895809190008F7D41
:100C3000F9CF80919000877FF5CF8091A0008F77CA
:100C40008093A00008958091A0008F7DF9CF8091BE
:100C5000A000877FF5CF809120018F7780932001BE
:100C60000895809120018F7DF9CF80912001877FA9
:100C7000F5CFCF93DF9390E0FC01E65DFE4F24912A
:100C800080599E4FFC0184918823C9F090E0880F21
:100C9000991FFC01E651FE4FA591B491FC01E05370
:100CA000FE4FC591D49161110DC09FB7F8948C91FE
:100CB000209582238C938881282328839FBFDF91EE
:100CC000CF910895623051F49FB7F8943C91822FF0
:100CD000809583238C93E8812E2BEFCF8FB7F894E8
:100CE000EC912E2B2C938FBFEACF1F93CF93DF93E2
:100CF000282F30E0F901EC51FF4F8491F901E65DB6
:100D0000FE4FD491F901E059FE4FC491CC23A1F0DC
:100D1000162F811148DFEC2FF0E0EE0FFF1FE0539C
:100D2000FE4FA591B4918FB7F894EC91111108C0C2
:100D3000D095DE23DC938FBFDF91CF911F91089573
:100D4000DE2BF8CFCF93DF93282F30E0F901EC5161
:100D5000FF4F8491F901E65DFE4FD491F901E0590E
:100D6000FE4FC491CC2399F081111DDFEC2FF0E0F0
:100D7000EE0FFF1FEA54FE4FA591B491EC91ED23C5
:100D800081E090E009F480E0DF91CF91089580E068
:100D900090E0FACFFC01918D228D892F90E0805C4C
:100DA0009F4F821B91098F7399270895FC01918DA4
:100DB000828D981731F0828DE80FF11D858D90E0BE
:100DC00008958FEF9FEF0895FC01918D828D981704
:100DD00061F0A28DAE0FBF2FB11D5D968C91928DEB
:100DE0009F5F9F73928F90E008958FEF9FEF08951C
:100DF000FC01538D448D252F30E0842F90E0821B21
:100E0000930B541710F0CF96089501970895FC01A5
:100E1000A48DA80FB92FB11DA35ABF4F2C91848D5B
:100E200090E001968F739927848FA689B7892C93B8
:100E3000A089B1898C91837080648C93938D848D0B
:100E4000981306C00288F389E02D80818F7D80830E
:100E50000895CF93DF93EC01888D8823B1F0AA89A0
:100E6000BB89E889F9898C9185FD03C0808186FD65
:100E70000CC00FB607FCF7CF8C9185FFF2CF8081B5
:100E800085FFEDCFCE01C3DFEACFDF91CF9108958B
:100E9000EF92FF920F931F93CF93DF93EC0181E0CA
:100EA000888F9B8D8C8D98131AC0E889F989808171
:100EB00085FF15C09FB7F894EE89FF896083E889A4
:100EC000F98980818370806480839FBF81E090E096
:100ED000DF91CF911F910F91FF90EF900895F62E23
:100EE0000B8D10E00F5F1F4F0F731127E02E8C8DBD
:100EF0008E110BC00FB607FCFACFE889F989808103
:100F000085FFF5CFCE0183DFF2CFEB8DEC0FFD2F08
:100F1000F11DE35AFF4FF0829FB7F8940B8FEA89D7
:100F2000FB8980818062D0CFCF92DF92EF92FF92D7
:100F30001F93CF93DF93EC016A017B01122FE889A5
:100F4000F98982E08083C11481EED806E104F104BE
:100F500099F060E079E08DE390E0A7019601A1D2DD
:100F600021503109410951095695479537952795E3
:100F7000211580E1380790F0E889F989108260E84E
:100F800074E88EE190E0A70196018BD221503109DF
:100F9000410951095695479537952795EC85FD856B
:100FA0003083EE85FF852083188EEC89FD891083C0
:100FB000EA89FB89808180618083EA89FB8980815D
:100FC00088608083EA89FB89808180688083EA89E0
:100FD000FB8980818F7D8083DF91CF911F91FF906E
:100FE000EF90DF90CF9008951F920F920FB60F925F
:100FF00011240BB60F922F938F939F93EF93FF9330
:10100000E0914302F09144028081E0914902F09125
:101010004A0282FD1DC0908180914C028F5F8F73C8
:1010200020914D02821741F0E0914C02F0E0ED5C1E
:10103000FD4F958F80934C02FF91EF919F918F917F
:101040002F910F900BBE0F900FBE0F901F90189511
:101050008081F2CF1F920F920FB60F9211240BB620
:101060000F922F933F934F935F936F937F938F9341
:101070009F93AF93BF93EF93FF9383E392E0C7DE19
:10108000FF91EF91BF91AF919F918F917F916F9160
:101090005F914F913F912F910F900BBE0F900FBE1C
:1010A0000F901F901895E3E3F2E01382128288EE0E
:1010B00093E0A0E0B0E084839583A683B78385E1C5
:1010C00092E09183808385EC90E09587848784EC1F
:1010D00090E09787868780EC90E0918B808B81EC05
:1010E00090E0938B828B82EC90E0958B848B86ECE6
:1010F00090E0978B868B118E128E138E148E08952E
:101100001F920F920FB60F9211240BB60F922F93CE
:101110008F939F93EF93FF93E091E002F091E102B0
:101120008081E091E602F091E70282FD1DC090818E
:101130008091E9028F5F8F732091EA02821741F05C
:10114000E091E902F0E0E053FD4F958F8093E902D2
:10115000FF91EF919F918F912F910F900BBE0F9068
:101160000FBE0F901F9018958081F2CF1F920F92A3
:101170000FB60F9211240BB60F922F933F934F93FC
:101180005F936F937F938F939F93AF93BF93EF93EF
:10119000FF9380ED92E03BDEFF91EF91BF91AF9125
:1011A0009F918F917F916F915F914F913F912F917F
:1011B0000F900BBE0F900FBE0F901F901895E0ED93
:1011C000F2E01382128288EE93E0A0E0B0E0848324
:1011D0009583A683B78385E192E0918380838DEC2C
:1011E00090E0958784878CEC90E09787868788ECE1
:1011F00090E0918B808B89EC90E0938B828B8AECD2
:1012000090E0958B848B8EEC90E0978B868B118E83
:10121000128E138E148E08951F920F920FB60F9296
:1012200011240BB60F922F938F939F93EF93FF93FD
:10123000E0917D03F0917E038081E0918303F09142
:10124000840382FD1DC09081809186038F5F8F7320
:1012500020918703821741F0E0918603F0E0E35983
:10126000FC4F958F80938603FF91EF919F918F9113
:101270002F910F900BBE0F900FBE0F901F901895DF
:101280008081F2CF1F920F920FB60F9211240BB6EE
:101290000F922F933F934F935F936F937F938F930F
:1012A0009F93AF93BF93EF93FF938DE693E0AFDDF2
:1012B000FF91EF91BF91AF919F918F917F916F912E
:1012C0005F914F913F912F910F900BBE0F900FBEEA
:1012D0000F901F901895EDE6F3E01382128288EECE
:1012E00093E0A0E0B0E084839583A683B78385E193
:1012F00092E09183808385ED90E09587848784EDEB
:1013000090E09787868780ED90E0918B808B81EDD0
:1013100090E0938B828B82ED90E0958B848B86EDB1
:1013200090E0978B868B118E128E138E148E0895FB
:101330001F920F920FB60F9211240BB60F922F939C
:101340008F939F93EF93FF93E0911A04F0911B0406
:101350008081E0912004F091210482FD1DC09081E4
:10136000809123048F5F8F7320912404821741F0B2
:10137000E0912304F0E0E65FFB4F958F8093230418
:10138000FF91EF919F918F912F910F900BBE0F9036
:101390000FBE0F901F9018958081F2CF1F920F9271
:1013A0000FB60F9211240BB60F922F933F934F93CA
:1013B0005F936F937F938F939F93AF93BF93EF93BD
:1013C000FF938AE094E023DDFF91EF91BF91AF910D
:1013D0009F918F917F916F915F914F913F912F914D
:1013E0000F900BBE0F900FBE0F901F901895EAE064
:1013F000F4E01382128288EE93E0A0E0B0E08483F0
:101400009583A683B78385E192E09183808385E30A
:1014100091E09587848784E391E09787868780E3CE
:1014200091E0918B808B81E391E0938B828B82E3BF
:1014300091E0958B848B86E391E0978B868B118E60
:10144000128E138E148E0895AF92BF92CF92DF92B8
:10145000EF92FF920F931F93CF93DF936C017B0169
:101460008B01040F151FEB015E01AE18BF08C017FA
:10147000D10759F06991D601ED91FC910190F0816D
:10148000E02DC6011995892B79F7C501DF91CF9120
:101490001F910F91FF90EF90DF90CF90BF90AF9092
:1014A0000895A1E21A2EAA1BBB1BFD010DC0AA1FA5
:1014B000BB1FEE1FFF1FA217B307E407F50720F0BD
:1014C000A21BB30BE40BF50B661F771F881F991F38
:1014D0001A9469F760957095809590959B01AC0181
:1014E000BD01CF010895EE0FFF1F881F8BBF07902E
:0A14F000F691E02D1994F894FFCF57
:1014FA0000CDCCCC3D000000000000803F0000A7DA
:10150A0004000000004807240AF8062907CA06E46E
:04151A0006D60600EB
:00000001FF
