:10000000DCC0000002C1000000C10000FEC0000012
:10001000FCC00000FAC00000F8C00000F6C00000FC
:10002000F4C00000F2C00000F0C00000EEC000000C
:10003000ECC000000C944610E8C00000E6C00000D0
:100040000C94FE1EE2C000000C949A210C94CC216A
:10005000DCC00000DAC00000D8C00000D6C000003C
:10006000D4C00000D2C00000001D3A2774694E536E
:10007000E8F5D2CF9C81A6BBCDD0F7EAB9A4839E88
:1000800025381F02514C6B76879ABDA0F3EEC9D478
:100090006F7255481B06213C4A57706D3E23041968
:1000A000A2BF9885D6CBECF1130E2934677A5D4058
:1000B000FBE6C1DC8F92B5A8DEC3E4F9AAB7908D48
:1000C000362B0C11425F78659489AEB3E0FDDAC738
:1000D0007C61465B0815322F5944637E2D30170A28
:1000E000B1AC8B96C5D8FFE2263B1C01524F687518
:1000F000CED3F4E9BAA7809DEBF6D1CC9F82A5B808
:10010000031E3924776A4D50A1BC9B86D5C8EFF2F7
:100110004954736E3D20071A6C71564B1805223FE7
:100120008499BEA3F0EDCAD735280F12415C7B66D7
:10013000DDC0E7FAA9B4938EF8E5C2DF8C91B6ABC7
:10014000100D2A3764795E43B2AF8895C6DBFCE1B7
:100150005A47607D2E3314097F6245580B16312CA7
:10016000978AADB0E3FED9C4000000080002010088
:100170000003040700000000000000000102040862
:100180001020408001020408102001020408102001
:10019000040404040404040402020202020203032D
:1001A0000303030300000000250028002B000000CB
:1001B0000000240027002A00F12111241FBECFEFE8
:1001C000D8E0DEBFCDBF12E0A0E0B1E0EAEEF7E498
:1001D00002C005900D92A837B107D9F724E0A8E72F
:1001E000B2E001C01D92A034B207E1F710E0CDEDFE
:1001F000D0E004C02197FE010E948122CC3DD107AE
:10020000C9F70E94621C0C94F323FACE611102C05C
:100210000C9407206130E1F362E0FACF662319F015
:1002200061E00C94432060E0FCCFCF92DF92EF922C
:10023000FF926B017C019F7720E030E040E859E5B8
:100240000E94621D87FF2BC020E030E040E05FE3AA
:10025000C701B6010E94971E87FD0EC020E030E066
:1002600040E05FE3C701B6010E94EB1CFF90EF90F6
:10027000DF90CF900C94CF1D20E030E040E05FEBAA
:10028000C701B6010E94971E181684F420E030E0E2
:10029000A901C701B6010E949B1E6B017C01C70129
:1002A000B601FF90EF90DF90CF90089520E030E00E
:1002B00040E05FE3C701B6010E94EA1CFF90EF90A7
:1002C000DF90CF900C944F1D8F929F92AF92BF9270
:1002D000CF92DF92EF92FF9280917201813009F00C
:1002E000D2C060916E0170916F0180917001909108
:1002F00071019BDF6B017C0120E030E040E853E4BA
:100300000E94621D6FEF87FF0EC020E030E0A90160
:10031000C701B6010E94971E60E087FD04C0C701B7
:10032000B6010E94661D84E079DF809173018130FF
:1003300009F0B2C060916601709167018091680117
:100340009091690172DF6B017C0120E030E040E8B0
:1003500053E40E94621D6FEF87FF0EC020E030E083
:10036000A901C701B6010E94971E60E087FD04C085
:10037000C701B6010E94661D88E050DF81E090E071
:100380000E94EA0F4091290450912A0460912B04A5
:1003900070912C0490E080E00E94E60F809035047C
:1003A00090903604A0903704B090380420E030E0FC
:1003B00040E85FEBC501B4010E94621D882331F162
:1003C000C0902904D0902A04E0902B04F0902C04D3
:1003D000A7019601C501B4010E94EA1C4B015C0112
:1003E00020E030E040E054E3C701B6010E949B1ECC
:1003F0009B01AC01C501B4010E94971E181634F090
:1004000088E791E090931404809313048091390459
:10041000882331F088E791E09093140480931304CB
:1004200060912D0470912E0480912F0490913004DE
:100430006F5F7F4F8F4F9F4F60932D0470932E04FB
:1004400080932F04909330040E94921D9B01AC0175
:10045000609131047091320480913304909134049E
:100460000E949B1E6093290470932A0480932B049E
:1004700090932C04FF90EF90DF90CF90BF90AF90BF
:100480009F908F90089560916A0170916B018091A7
:100490006C0190916D012DCF6091620170916301AB
:1004A00080916401909165014DCFCF92DF92EF92E0
:1004B000FF921F93CF93DF93E3E1F4E080E090E0BD
:1004C000A0E8BFEB82A393A3A4A3B5A38AE097ED12
:1004D000A3E2BCE3868F978FA0A3B1A389EC91EB35
:1004E000ABEAB3E084839583A683B78389EF92EA6E
:1004F000A1E6BDE980879187A287B38789E69FEE51
:10050000A9E5B8EB84879587A687B78784E395EE3E
:10051000A9EEB0EA808B918BA28BB38BCAE9D2E0B3
:10052000D383C283ACE8B2E0B983A8838CE891E0BE
:1005300011969C938E9313969C938E931297159677
:100540009C938E93149717969C938E931697199657
:100550009C938E9318971B969C938E931A971D9637
:100560009C938E931C9787E294E09D838C8387E114
:1005700094E09B838A8389E294E09F838E83A2E840
:10058000B2E08AE0ED0119928A95E9F7A8E7B2E0B6
:10059000B58BA48B8FE090E011969C938E9384E4AE
:1005A00091E013969C938E93129786E291E01596B4
:1005B0009C938E9314978AE191E017969C938E9367
:1005C000169786E091E019969C938E931897C3E056
:1005D000D4E01882C12CD12C7601C394C982DA826E
:1005E000EB82FC8261E084E011DE11E01D8318865D
:1005F000C986DA86EB86FC8661E088E007DE1D8727
:10060000DF91CF911F91FF90EF90DF90CF900895F1
:1006100080910304811103C081E0809303048091E1
:100620000B04811103C081E080930B040895EF92C5
:10063000FF920F931F93CF93DF93EA01F901DC013F
:100640001496ED90FC90159712964D915C9113972E
:100650004E0D5F1D2881398118960D911C911997B7
:100660000217130730F00D911C911197012B09F41B
:1006700041C08A01021B130BDC0118968D919C91DD
:100680008E199F09800F911F86179707DCF1C9010A
:10069000860F971F8417950778F4718360833383DF
:1006A0002283158214821782168288819981680FAD
:1006B000791F7983688316C0118300833383228373
:1006C000601B710B7583648390E080E0161617063B
:1006D00014F49E2D8F2D96838783D701A60FB71F05
:1006E000B983A88380E0DF91CF911F910F91FF9094
:1006F000EF90089518968D919C91821B930B86170D
:1007000097075CF681E0EFCFCF92DF92EF92FF92F6
:10071000CF93DF936B0184E4869FE001879FD00D28
:100720001124CA55DD4F8AA99BA9009721F00E9488
:1007300051231BAA1AAA84E48C9DF0018D9DF00D13
:100740001124EA55FD4F86A997A9009711F00E9440
:10075000512384E48C9DF0018D9DF00D1124EA5508
:10076000FD4F138A128A168A178A108E118E128EE6
:10077000138E148E158E168E178E10A211A281E084
:1007800090E093A382A315A214A216A217A210A60A
:1007900011A613A612A615A614A616A617A610AA89
:1007A00011AA13AA12AA15AA14AA17AA16AA11AE58
:1007B00010AE12AE13AE14AE15AEDF01DE961D9272
:1007C0001D921D921C921397EE5BFF4F11821082B7
:1007D000DF91CF91FF90EF90DF90CF900895CF936E
:1007E000DF93FB01DC016D917C91DB011696CD91CD
:1007F000DC918081918123E0880F991F2A95E1F790
:10080000AA81BB81A80FB91F8D919C911197248556
:100810003585220F331FEB016A817B81EB01C20F0B
:10082000D31F0990D881C02D14962D913C9161E081
:1008300070E0232B11F062E070E0C69F9001C79F2B
:10084000300DD69F300D1124A085B1852A9FB001AF
:100850002B9F700D3A9F700D1124A481B5812A9FA2
:10086000F0012B9FF00D3A9FF00D11248E0F9F1F6A
:10087000FA019183808373836283DF91CF9108951E
:100880002F923F924F925F926F927F928F929F92A0
:10089000AF92BF92CF92DF92EF92FF920F931F938E
:1008A000CF93DF9300D000D000D0CDB7DEB7DC010E
:1008B0001496ED91FC910190F081E02D8085918559
:1008C0009A838983A281B381BC83AB83FB0181902E
:1008D0009190A190B190C12CD12C7601C814D9046B
:1008E000EA04FB04CCF026960FB6F894DEBF0FBEE8
:1008F000CDBFDF91CF911F910F91FF90EF90DF90CF
:10090000CF90BF90AF909F908F907F906F905F90AF
:100910004F903F902F900895448055806680778057
:100920004085518562857385CF0140969E838D8376
:10093000A081B1819D0183E0220F331F8A95E1F7E9
:10094000A981BA8112968D919C91D901A80FB91FE6
:100950002D903C9011970484F585E02DEE0FFF1F3C
:100960008B819C81E80FF91F0190F081E02D149696
:100970008D919C91892B41F581E090E0E89F900159
:10098000E99F300DF89F300D1124249F8001259F91
:10099000100D349F100D1124249DC001259D900D34
:1009A000349D900D1124A8016D817E81820D931DCF
:1009B0000E94DA23ED81FE81E00FF11F9FEFC91A3B
:1009C000D90AE90AF90A8ACF82E090E0D7CFCF931B
:1009D000DF93DB01AC58BE4F2C91222369F024E455
:1009E000269FF001279FF00D1124EA55FD4FEF01DE
:1009F00019922A95E9F71C9224E4269FF001279F7B
:100A0000F00D1124EA55FD4F1482158216821782CB
:100A10001186108613861286118A108A178616860A
:100A2000DF91CF9171CE2F923F924F925F926F9252
:100A30007F928F929F92AF92BF92CF92DF92EF926E
:100A4000FF920F931F93CF93DF93CDB7DEB7289715
:100A50000FB6F894DEBF0FBECDBF24E4269FF00191
:100A6000279FF00D1124EA55FD4F04811581268141
:100A70003781012B022B032B09F4B7C02A016B012C
:100A80007C0110E000E0812C912C54013F019F017A
:100A9000285F3F4F3C832B83CF0104969E838D8339
:100AA000AB81BC818D919C91ED81FE814081518112
:100AB0006281738184169506A606B706E4F10E944A
:100AC0005123D3011A968D919C91892B09F07EC0F8
:100AD00084E48C9DD0018D9DB00D1124AA55BD4F8D
:100AE000BC83AB8350968D919C910E945123EB81E6
:100AF000FC81868597850E945123C701B60104DEDB
:100B0000C701B60128960FB6F894DEBF0FBECDBF61
:100B1000DF91CF911F910F91FF90EF90DF90CF90D9
:100B2000BF90AF909F908F907F906F905F904F900D
:100B30003F902F904CCFFC01E00FF11F92819983E1
:100B4000A381AA839F83A887312C212C24143504E8
:100B500064F089819A810E945123EFEF8E1A9E0AD8
:100B6000AE0ABE0A0C5F1F4F9BCFAF81B885ED91D7
:100B7000FD91B887AF83309759F0848195810E94A9
:100B80005123EF81F8853297808191810E94512312
:100B9000BFEF2B1A3B0ADACF800F911FFC01848133
:100BA00095810E9451232B813C812F5F3F4F3C83D5
:100BB0002B83025F1F4FF501808191812B813C8146
:100BC000241535054CF30E94512382CF10E000E03C
:100BD0001C821B8224E42C9DC0012D9D900D1124AC
:100BE000DC01A055BD4F5D01E6CF28960FB6F89405
:100BF000DEBF0FBECDBFDF91CF911F910F91FF9050
:100C0000EF90DF90CF90BF90AF909F908F907F90AC
:100C10006F905F904F903F902F90089524E4269F0F
:100C2000F001279FF00D1124EA55FD4F8289938929
:100C30000497029758F485E090E0938B828B8FEFB6
:100C40009FEFDC01828F938FA48FB58F08952F9231
:100C50003F924F925F926F927F928F929F92AF924C
:100C6000BF92CF92DF92EF92FF920F931F93CF9399
:100C7000DF93CDB7DEB7AA970FB6F894DEBF0FBEED
:100C8000CDBF9AA389A37E8B6D8B1A01098B1A8B1A
:100C90002B8B3C8B84E429893A89829F6001839F56
:100CA000D00C112486010A551D4F89899A89AB8978
:100CB000BC89F80180839183A283B383AB01BC011B
:100CC000CD01B1DED601A655BD4F84E0F101019002
:100CD0000D928A95E1F7F4E02F0E311C64E070E08C
:100CE000D80114968D919C910E949B22F8019187C6
:100CF0008087892B09F0F5C04D895E8969897A89D9
:100D00008B899C8990DE81E0AA960FB6F894DEBFAD
:100D10000FBECDBFDF91CF911F910F91FF90EF904C
:100D2000DF90CF90BF90AF909F908F907F906F900B
:100D30005F904F903F902F900895A9A5BAA58D91EF
:100D40009C91E98DFA8DE80FF91FF88FEF8BD10197
:100D50008D919C91880F991FA9A1BAA1ED91FC9149
:100D6000E80FF91F80819181EF89F88D918380834D
:100D7000D10114962D913D914D915C9117972BA324
:100D80003CA34DA35EA362E070E08D899E890E9422
:100D90009B22EF89F88D93838283892B09F4ACCF52
:100DA000F8E02F0E311C412C512C32012BA13CA11B
:100DB0004DA15EA142165306640675069CF02B8D6C
:100DC0003C8D4D8D5E8D2F5F3F4F4F4F5F4F2B8F73
:100DD0003C8F4D8F5E8F498D5A8D4C5F5F4F5A8F80
:100DE000498F90C0610124E0C20ED11CD101ED9069
:100DF000FC90EE0CFF1CEF89F88D82819381E80E48
:100E0000F91E68E070E081E090E00E949B228C0176
:100E1000D7018D939C93892B09F46ECF84E0F60162
:100E2000D80101900D928A95E1F7B8E02B0E311CA4
:100E3000F80180819181A281B381181619061A06E2
:100E40001B06DCF464E070E00E949B22D80115963A
:100E50009C938E931497892B09F44ECFD12CC12CDF
:100E6000812C912C5401F80180819181A281B38160
:100E700088169906AA06BB0634F0FFEF4F1A5F0AE0
:100E80006F0A7F0A93CFF801E480F580EC0CFD1C1B
:100E900080E1F101DE01119601900D928A95E1F752
:100EA000F0E12F0E311CA701BE016F5F7F4FA9A19A
:100EB000BAA114968D919C9192DCF801868197815C
:100EC000D70112962D913C91820F931F97838683B1
:100ED000BFEF8B1A9B0AAB0ABB0AE4E0CE0ED11C13
:100EE000C2CF1A8E198E1B8E1C8E1D8E1E8E18A3BD
:100EF0000F8FA8014C5F5F4F58A74FA3C8010896FA
:100F00009AA789A7EFA1F8A580819181A281B381D9
:100F10002B8D3C8D4D8D5E8D281739074A075B0759
:100F20000CF40BCF6EE070E08D899E890E949B22AD
:100F3000AF8DB8A11B969C938E931A97B12CA12CC0
:100F4000D12CC12CF12CE12C24E4E989FA892E9FC3
:100F5000C0012F9F900D11249C0120553D4F388FCB
:100F60002F8B88248394912C4D895E89C416D506D5
:100F700054F184E4A989BA898A9F80018B9F100D5E
:100F800011240A551D4FF80115861486C70133E058
:100F9000880F991F3A95E1F70E94B522D801519622
:100FA0009C938E935097892B09F4A6CEC701880F86
:100FB000991F0E94B522F80197878687892B09F42B
:100FC0009BCE80E0A1CED1014D905D906D907D9043
:100FD0001D0177FC91CEEF89F88D008111810A0DFA
:100FE0001B1DD80111969C928E92411451046104EC
:100FF000710429F1C2010E94B522F801958384830E
:10100000892B09F479CEF80153824282848195813B
:1010100097838683918780871386128681E090E08C
:1010200045284628472811F490E080E0E80EF91E94
:10103000FFEFCF1ADF0A2EE0A20EB11C95CF159656
:101040001C921E921497DFCF2F923F924F925F9285
:101050006F927F928F929F92AF92BF92CF92DF92C8
:10106000EF92FF920F931F93CF93DF93CDB7DEB72D
:101070006A970FB6F894DEBF0FBECDBF9E8B8D8BE7
:1010800049015A0184E4829F7001839FF00C11246E
:1010900097012A553D4F6901FB0180819181F9013A
:1010A000958B848BD701A454BD4FFB01349684E00B
:1010B00001900D928A95E1F7D701A054BD4FFB0135
:1010C000389684E001900D928A95E1F7D701AC53F0
:1010D000BD4FFB013C9684E001900D928A95E1F7AB
:1010E000D701AC52BD4FFB01709684E001900D9288
:1010F0008A95E1F78B010C5E1F4FF90186A597A534
:10110000A0A9B1A918161906DCF5880F991F880F38
:10111000991F0E94B522F60193AB82AB892B09F48B
:10112000D3C0312C212C412C512C32019601225D4F
:101130003F4F388F2F8BC601C2969A8F898FF496B6
:10114000FC8BEB8BB301A2012FEF421A520A620A09
:10115000720AEF89F88D80819181A281B38148174D
:1011600059076A077B070CF47BC0F60184A995A98F
:101170000E94B522F60197AB86AB892B09F4A4C077
:10118000F80180819181A281B38124E4289DF0013E
:10119000299DF00D1124EA55FD4FAC01BD014D7F95
:1011A00021E030E0452B462B472B11F030E020E0CA
:1011B00033A322A324E4289DF001299DF00D1124DE
:1011C000EA55FD4F0197A109B10921E030E00297EE
:1011D000A105B10510F030E020E035A324A3D7012C
:1011E000A453BD4FF801349684E001900D928A9586
:1011F000E1F784E4889DF001899DF00D1124EA5502
:10120000FD4F868D978DA0A1B1A1B7FF58C0B095B5
:10121000A095909581959F4FAF4FBF4F82AF93AFF1
:10122000A4AFB5AF168E178E10A211A280E06A96F9
:101230000FB6F894DEBF0FBECDBFDF91CF911F91E7
:101240000F91FF90EF90DF90CF90BF90AF909F9065
:101250008F907F906F905F904F903F902F90089568
:10126000E98DFA8D808191819C01220D331D3A8B8D
:10127000298B80E1F801DE01119601900D928A958B
:10128000E1F7005F1F4F49895A89BE016F5F7F4FA9
:10129000ED89FE8984819581A2DAEB89FC898081C0
:1012A0009181E989FA8922813381820F931FEB8929
:1012B000FC8991838083F4E02F0E311C43CF12AE62
:1012C00013AE14AE15AEB2CFC501B4011DDA81E084
:1012D000AECFCF92DF92EF92FF92CF93DF93109237
:1012E0002E0324E4269FF001279FF00D1124EA55D8
:1012F000FD4F15A614A630E020E0D12CC12CDF0153
:101300001A96C1E0D0E0C416D506F4F024E4269F76
:10131000F001279FF00D1124EA55FD4F13A612A6E8
:1013200011AE10AEDF01DE961D921D921D921C9231
:10133000139782E090E0938B828BDF91CF91FF90A7
:10134000EF90DF90CF900895ED91FC911197E20F0F
:10135000F31FE280F3801E141F0454F4E480F58030
:10136000F782E682F186E08613861286D183C083F7
:10137000EFEFCE1ADE0A225F3F4FC5CF24E4269F4F
:10138000F001279FF00D1124EA55FD4F138A128AB0
:101390004ACB24E4269FF001279FF00D1124EA5543
:1013A000FD4F8289938981309105C8F08530910580
:1013B00018F0059769F008958FEF9FEFDC01828F99
:1013C000938FA48FB58F85E090E0938B828B0895E7
:1013D0008FEF9FEFDC01828F938FA48FB58F0895DD
:1013E00024E4249FD001259FB00D1124AA55BD4FA0
:1013F0002EE0AC01249FC001259F900D11241A9668
:10140000ED91FC91E80FF91F81E080932E03828516
:10141000938591878087408551852681378181E03A
:1014200090E04217530711F090E080E091838083B1
:1014300008952F923F924F925F926F927F928F9278
:101440009F92AF92BF92CF92DF92EF92FF920F9353
:101450001F93CF93DF93CDB7DEB7C055D1090FB639
:10146000F894DEBF0FBECDBF9EAF8DAF4BA75CA77C
:101470006DA77EA76801790184E4809FF001819FB8
:10148000F00D1124EA55FD4F2285338523963FAF99
:101490002EAF239782899389029761F486A597A539
:1014A000A0A9B1A9892B8A2B8B2BC9F584E090E0E8
:1014B000938B828B84E48C9DF0018D9DF00D112423
:1014C000EA55FD4F828993898230910509F037C230
:1014D00082AD93ADA4ADB5AD22242394312C181662
:1014E00019061A061B060CF42FC2C05BDF4F0FB69D
:1014F000F894DEBF0FBECDBFDF91CF911F910F914A
:10150000FF90EF90DF90CF90BF90AF909F908F9023
:101510007F906F905F904F903F902F9008958489B7
:1015200095894DAD5EAD8417950721F606A917A9DB
:1015300018AE1FAA1BAA1CAA1DAA1EAA1F01CF0112
:101540008E9627969FAF8EAF2797DF01D29629966A
:10155000BFAFAEAF2997F8962B96FFAFEEAF2B97A4
:1015600091012A5D3F4F2D963FAF2EAF2D97A101E0
:101570004E5D5F4F2F965FAF4EAF2F970A976196E4
:101580009FAF8EAF61972796EEADFFAD2797808115
:101590009181A281B3812BA93CA94DA95EA92817ED
:1015A00039074A075B0744F081E090E0D101D99602
:1015B0009C938E93D8977ECF2996AEADBFAD2997D9
:1015C000ED91FC912FA938ADE20FF31F42815381B9
:1015D0005AAF49AF50815FAF818121968FAF21977C
:1015E0002B96AEADBFAD2B978D919C91892B21F1A0
:1015F0002D96EEADFFAD2D9780809180A280B380B7
:101600001AAB09AB5FA72196FFAD2197F8AB29ADC7
:101610003AAD369527953695279525963FAF2EAF4F
:1016200025971CAE1BAE2596AEADBFAD2597EBAD95
:10163000FCADEA17FB070CF149AD5AAD6FAD219631
:101640007FAD2197C8010E94DA2389AD9AAD8C7FC6
:10165000080F191F2BA93CA94DA95EA92F5F3F4F69
:101660004F4F5F4F2BAB3CAB4DAB5EAB4FA958AD73
:101670004C5F5F4F58AF4FAB86CF2F96AEADBFAD2F
:101680002F978D919C91892B71F1EFA5F8A940803E
:10169000518062807380A3019201C501B4010E9450
:1016A000621D181664F0A9A9BAA92D913D914D911A
:1016B0005C91C501B4010E94971E1816BCF1A301EC
:1016C0009201C501B4010E94621D87FF0CC0E9A907
:1016D000FAA92081318142815381C501B4010E9460
:1016E000621D882319F16196AEADBFAD61978D91F2
:1016F0009C91892B09F445C0EFA5F8A94080518041
:1017000062807380A3019201C501B4010E94971EFB
:1017100018161CF5A9A9BAA92D913D914D915C917E
:10172000C501B4010E94621D18165CF184E48C9D11
:10173000F0018D9DF00D1124EA55FD4F868D978D9A
:10174000A0A1B1A1892B8A2B8B2B69F183E090E0BA
:10175000938B828B81E090E02CC0A3019201C501A4
:10176000B4010E94621D81110CC0E9A9FAA920816F
:10177000318142815381C501B4010E94621D87FD00
:10178000D5CF2BAD3CAD2F5F3F4F3CAF2BAF49A921
:101790005AA94C5F5F4F5AAB49AB8FA598A90496E5
:1017A00098AB8FA740CF84E090E0938B828B86AD7F
:1017B00097AD93A782A77ECEEBADFCAD80819181E2
:1017C000F401EE0FFF1FEE0FFF1FE80FF91FA081BE
:1017D000B1818C9181110AC0FFEF8F1A9F0AAF0A65
:1017E000BF0A8DA29EA2AFA2B8A68FC18330A1F37B
:1017F0000280F381E02D2FA938ADE20FF31F808125
:1018000091819AAB89AB892B39F34F5F5F4F6F4F53
:101810007F4F49875A876B877C879E01235E3F4FA6
:10182000AE01475D5F4F64E070E0C8010E9417039E
:101830008111D0C18D819E81AF81B8850496A11D93
:10184000B11D8D839E83AF83B8874D8D5E8DBE01A4
:101850006B5D7F4F8F8D98A10E94DA238BA19CA195
:10186000009761F06D8D7E8DA5E2B0E0AC0FBD1FDD
:101870006A0F7B1F49A15AA10E94DA231CAA1BAA46
:10188000412C512C3201E9A9FAA980819181A281D0
:10189000B381481659066A067B060CF09DCFE9A96C
:1018A000FAA9848195812BA93CA9280F391F38AB4F
:1018B0002FA7D90112966D917C919E01235E3F4F17
:1018C000AE01475D5F4FC8010E941703811182C1BD
:1018D000EFA5F8A982819381092E000CAA0BBB0BFE
:1018E0004D815E816F817885840F951FA61FB71F7C
:1018F0008D839E83AF83B887608171814D8D5E8DAE
:101900008F8D98A10E94DA238BA19CA1009761F092
:10191000AFA5B8A96D917C912D8D3E8D620F731F7F
:1019200049A15AA10E94DA23BFEF4B1A5B0A6B0A46
:101930007B0AEBA9FCA93496FCABEBABA4CF312C12
:10194000212C049709F0D1CD8EE0EDADFEAD8E9F38
:1019500080018F9F100D112423962EAD3FAD23974C
:10196000020F131FD80112964D915C9113974115E8
:10197000510509F4BACD16968D919C919AA789A725
:1019800080E1FE013196DF011D928A95E9F7C98A4F
:10199000DA8AEB8AFC8A2114310409F458C084E401
:1019A0008C9DF0018D9DF00D1124EA55FD4FDF0156
:1019B000DE968D909D90AD90BC9082AD93ADA4AD20
:1019C000B5AD88169906AA06BB0609F040C0F80115
:1019D000848195810084F185E02D349624E0DE0138
:1019E000559601900D922A95E1F72D893E89285F41
:1019F0003F4F3E8B2D8BD80118966D917C91199796
:101A0000260F371F19963C932E93189718962D91F1
:101A10003C911997480F591F241B350B37FD06C001
:101A2000820F931F19969C938E93189784E48C9D34
:101A3000F0018D9DF00D1124EC51FD4FB1E08B1A9A
:101A40009108A108B10880829182A282B3829E018E
:101A50002B5E3F4FAE01475D5F4F64E170E0C80110
:101A60000E9417038111B6C08CE090E0A0E0B0E0C6
:101A70008D839E83AF83B8879E01235E3F4FAE0167
:101A8000475D5F4F64E070E0C8010E941703811159
:101A9000A1C080E190E0A0E0B0E08D839E83AF83A1
:101AA000B8874D8D5E8DBE01655D7F4F8F8D98A18E
:101AB0000E94DA238BA19CA1009761F06D8D7E8D31
:101AC000EBE2F0E0EC0FFD1F6E0F7F1F49A15AA162
:101AD0000E94DA231DA21EA21FA218A62DAD3EADA4
:101AE000220F331F38AF2FAB24E42C9DC0012D9D56
:101AF000900D11248A559D4FAC014C5F5F4F5AAF3A
:101B000049AFDC011896BCAFABAF8DA09EA0AFA0D3
:101B1000B8A449855A856B857C85E9ADFAAD80818D
:101B20009181A281B38188169906AA06BB060CF49E
:101B300043CE452B462B472B09F4D7CC8AE190E0C6
:101B4000A0E0B0E089839A83AB83BC832DAD3EAD2A
:101B5000C901330FAA0BBB0B8D879E87AF87B88B4C
:101B60004D895E89BE016F5F7F4F8F89988D0E947E
:101B7000DA238B8D9C8D009761F06D897E8941E021
:101B800050E04C0F5D1F640F751F498D5A8D0E94E8
:101B9000DA2389A59AA5D80117969C938E93169758
:101BA00011961C921E92232809F49FCC84E48C9DEC
:101BB000F0018D9DF00D1124EC51FD4F808191813C
:101BC000A281B3810196A11DB11D80839183A2835F
:101BD000B3838BCC232809F088CC84E48C9DF0015E
:101BE0008D9DF00D1124EA55FD4F81E090E095A701
:101BF00084A785E090E0938B828B77CCCF92DF92A5
:101C0000EF92FF920F931F9324E4269FF001279FEA
:101C1000F00D1124EA55FD4F228933892115310534
:101C200009F452C06B017C0121303105B1F482A569
:101C300093A59C012F5F3F4F33A722A7092E000CCD
:101C4000AA0BBB0B028D138D248D358D8017910748
:101C5000A207B307C9F5C7013CDB84E48C9DF00102
:101C60008D9DF00D1124EA55FD4F828993890397CC
:101C700059F582A593A59C012F5F3F4F33A722A75B
:101C8000092E000CAA0BBB0B468D578D60A171A1CC
:101C900084179507A607B707BCF086AD97AD93A745
:101CA00082A784E090E0938B828B82AD93ADA4AD4C
:101CB000B5AD181619061A061B0634F4EE5BFF4F75
:101CC00081E090E0918380831F910F91FF90EF90CE
:101CD000DF90CF90089524E4269FF001279FF00D18
:101CE0001124EA55FD4F828993890497B1F482A5A6
:101CF00093A5019693A782A7092E000CAA0BBB0BF4
:101D000046895789608D718D84179507A607B70797
:101D100021F485E090E0938B828B08952F923F927F
:101D20004F925F926F927F928F929F92AF92BF92EB
:101D3000CF92DF92EF92FF920F931F93CF93DF9397
:101D4000CDB7DEB72E970FB6F894DEBF0FBECDBF6E
:101D5000DC0149835A836B837C83290184E4849F5B
:101D6000F001859FF00D1124EA55FD4F228833883C
:101D7000C1010497029708F0D5C011961C921E92DB
:101D800013961C921E92129715861486912C812C04
:101D900090E080E08F019F01205F3F4F38872F83C5
:101DA0003F013CE0630E711CBF01625F7F4F7A8789
:101DB00069873A96FC87EB87EF81F885208131812E
:101DC000F30140815181E985FA85A080B1808415B5
:101DD00095050CF445C011965C934E9313963C9375
:101DE0002E9312971596BC92AE921497452BF9F448
:101DF000F5E02F163104D9F410922E03F801828DEC
:101E0000938DA48DB58DAE014F5F5F4F64E070E0A0
:101E10008F3F9F4FAF4FBF4F09F079C080E290E0F6
:101E2000D5D469817A818B819C81A201A7DA2E9613
:101E30000FB6F894DEBF0FBECDBFDF91CF911F91DB
:101E40000F91FF90EF90DF90CF90BF90AF909F9059
:101E50008F907F906F905F904F903F902F9008955C
:101E6000EB85FC8560817181FB01E80DF91DFE8722
:101E7000ED8760817181672B89F5E084F18462814F
:101E800073817E836D83668177816A01E3E0CC0C88
:101E9000DD1CEA95E1F72C0D3D1D440F551F4A0D41
:101EA0005B1DFA0191838083F301408151814F5F73
:101EB0005F4F51834083F901F382E282ED85FE8515
:101EC00073876287E616F70670F46E197F09F901C9
:101ED0007183608315821482178216820196FEE058
:101EE0008F0E911C69CFED85FE85C480D5804D8114
:101EF0005E814C0D5D1D4E195F09F90151834083D0
:101F00006C197D0975836483D782C682E7CF8FE120
:101F100090E05CD4F80113A612A681E090E0938BC8
:101F2000828B85CF1586148611961C921E9213966D
:101F30001C921E9212977BCFEF92FF920F931F93EA
:101F4000CF93DF937C018B01EA011ED581111BC069
:101F500080917601909177010497F9F4DF91CF9108
:101F60001F910F91FF90EF90089528ED38EB45E019
:101F700050E060E070E0CB01BDD7AE01B801C70111
:101F8000C7D7C80190D780912F0390913003892B38
:101F9000F9F68881882349F3DBCF83E090E09093C2
:101FA000770180937601DACFCF93DF93209176018A
:101FB000309177012430310531F0EB01A9D7CE0102
:101FC000DF91CF9170C7DF91CF9108950C94841B5E
:101FD0000C94791B0C94671B76C70C940B1B08950B
:101FE00070E060E090E080E0AAC40895AF92BF92F4
:101FF000CF92DF92EF92FF920F931F93CF93DF93D5
:1020000000D0CDB7DEB75C018B0169017A0190E0A9
:1020100080E0C114D104E104F10469F40F900F9041
:10202000DF91CF911F910F91FF90EF90DF90CF90B4
:10203000BF90AF9008959C2D8D2DC114D10421E047
:10204000E206F10410F09FEF8FEF9E012F5F3F4FEC
:10205000492F582FB801C5010E940D1C8F3F9807CA
:10206000E9F229813A81C21AD30AE108F108020F84
:10207000131FCFCF40E855E260E070E090E080E0D1
:1020800000C026E086E693E00C943A211F920F925E
:102090000FB60F9211242F933F934F935F936F933B
:1020A0007F938F939F93AF93BF93EF93FF938FE8AB
:1020B0009DEF90938500809384000E94461CFF91C1
:1020C000EF91BF91AF919F918F917F916F915F91B0
:1020D0004F913F912F910F900FBE0F901F90189529
:1020E0008FE89DEF9093850080938400AFE6B0E089
:1020F0008C918E7F8C93E0E8F0E080818C7F8083F0
:10210000E1E8F0E08081877E808380818460808345
:1021100080818C7F80838C9181608C93089581E095
:1021200008958F929F92AF92BF92CF92DF92EF92DB
:10213000FF920F931F93CF93DF935C017B018A0182
:10214000C1E0D0E0CE15DF05CCF081E0F501808361
:10215000B801C7010E94AE1BF5019283818390E014
:1021600080E0DF91CF911F910F91FF90EF90DF9072
:10217000CF90BF90AF909F908F9008956E018FEF9A
:10218000C81AD80AFE01EE0FFF1FE00FF11F808072
:1021900091808114910469F06BE172E0C4010E94A6
:1021A000EA23892B41F4CC0FDD1FC00FD11F198208
:1021B0001882E601C7CF6EE172E0C4010E94EA23F3
:1021C000892BB9F7EC14FD04A1F36E01E2E0CE0E09
:1021D000D11CCC0FDD1FC00FD11F198218821B82AA
:1021E0001A82E7CF81E393E0089580E008950F938A
:1021F0001F93CF93DF938B01BA01E90119821882F3
:102200009801012E000C440B550BFC018181928139
:10221000EDDE019641F01983088380E0DF91CF91D4
:102220001F910F91089581E0F9CF0F931F93CF93E2
:10223000DF9300D0CDB7DEB7FB018A01B9019E0163
:102240002F5F3F4FAF01FC01818192810E94C21B31
:10225000019669F089819A81F8019183808380E0F9
:102260000F900F90DF91CF911F910F91089581E012
:10227000F7CFFC01808108950895089581E0FB0166
:10228000808380E008950895109259030895FC0119
:10229000818192810C94A61BCF93DF93CDB7DEB7DB
:1022A0002A970FB6F894DEBF0FBECDBFB0E0A0E016
:1022B00089839A83AB83BC83CB01770FAA0BBB0BBB
:1022C0008D839E83AF83B8879E01275F3F4FAE010A
:1022D0004F5F5F4F68E070E0809148039091490341
:1022E00086DF811110C081E029853A8528303105CB
:1022F00009F480E02A960FB6F894DEBF0FBECDBF7A
:10230000DF91CF91089581E0F5CF0F931F93CF9385
:10231000DF9300D0CDB7DEB78B019E012F5F3F4F1B
:10232000AC01809148039091490361DF81110EC097
:1023300081E029813A812017310709F480E00F906C
:102340000F90DF91CF911F910F91089581E0F7CF0A
:10235000CF93DF93EC0110924C0310924B03109239
:10236000580310925703AC0160E070E0CB0106D82F
:10237000AE0161E070E080E090E000D88091480319
:1023800090914903DF91CF917ECF4F925F926F92F0
:102390007F928F929F92AF92BF92CF92DF92EF92F5
:1023A000FF920F931F93CF93DF9300D0CDB7DEB78B
:1023B0008C017C0197FF03C087E0E80EF11C23E04D
:1023C000F594E7942A95E1F7C80168E070E00E946F
:1023D0004C226C010E5F1F4F809146039091470382
:1023E00080179107D4F4809144039091450300979E
:1023F00031F00E9451231092470310924603C80106
:102400000E94B5229093450380934403892B09F4DD
:1024100082C0109347030093460310E000E047C1D9
:10242000412C512C3201B12CA12C9501235B3C4F46
:10243000AE014F5F5F4F61E070E080914803909183
:102440004903F3DE811149C0EFEF4E1A5E0A6E0AAE
:102450007E0AF0E94F16FFE55F06F1E06F067104B2
:1024600044F060915703709158038DEE90E014DFB3
:10247000D7CF89819A81A80EB91E8AE0A816B10427
:1024800009F043C049E050E070E060E08DE493E083
:102490000E94381C6091570370915803882391F172
:1024A0008091550390E08617970781F4BC018EEE6A
:1024B00090E0F2DE8091570390915803019699279E
:1024C00090935803809357030F5F1F4F0E151F05FE
:1024D0000CF4A6CFCD2809F07CC090E080E00F90EE
:1024E0000F90DF91CF911F910F91FF90EF90DF90B0
:1024F000CF90BF90AF909F908F907F906F905F90A4
:102500004F9008958FEE90E0B2CFEAE0AE16B1049E
:102510000CF48BCFDBCF10E000E0D8CF0A301105F0
:1025200031F549E050E070E060E08DE493E00E9416
:10253000381C60915703709158038823A9F080914B
:10254000550390E08617970741F6BC018EEE90E0A8
:10255000A3DE809157039091580301969927909399
:10256000580380935703B9CF8FEE90E02BC00A3009
:1025700011050CF0B2CF9801235B3C4FAE014F5FC9
:102580005F4F61E070E080914803909149034DDE18
:102590008111A3CF89819A81080F191FFFEFCF1AEC
:1025A000DF0AEF0AFF0A80E9C8168FE5D80681E046
:1025B000E806F1040CF4B2CF609157037091580310
:1025C0008DEE90E069DE10E000E0C12CD12C7601A8
:1025D000D2CFC12CD12C760110E000E0CCCF412C21
:1025E000512C3201B12CA12C480193E0880C991C8C
:1025F0009A95E1F72091440330914503C501880D78
:10260000991D280F391FAE014F5F5F4F61E070E0E9
:10261000809148039091490308DE81115ECFEFEF6E
:102620004E1A5E0A6E0A7E0A609157037091580333
:102630008DEE90E0F0E94F16FFE55F06F1E06F06E2
:1026400071040CF043C089819A81A80EB91E8AE0FA
:10265000A816B10409F041C049E050E0B4018091EE
:102660004403909145030E94381C60915703709178
:102670005803882349F18091440390914503880EC3
:10268000991EF401808590E08617970781F4BC01BC
:102690008EEE90E001DE80915703909158030196F1
:1026A000992790935803809357030F5F1F4F0E1580
:1026B0001F050CF494CFC114D10409F081C080919E
:1026C0004403909145030BCF8FEE90E0E5DD412C64
:1026D000512C3201B12CA12C8DCFFAE0AF16B104F0
:1026E0000CF488CFE4CF8FEE90E0D6DDF12CE12C16
:1026F000812C912C54019701235B3C4FAE014F5F1D
:102700005F4F61E070E080914803909149038DDD57
:102710008111E3CE8FEF881A980AA80AB80A60914F
:102720005703709158038DEE90E0E0E98E16EFE5C7
:102730009E06E1E0AE06B104C4F689819A81E80EF6
:10274000F91EFAE0EF16F104A9F549E050E070E057
:1027500060E08DE493E00E94381C60915703709113
:102760005803882309F4BFCF8091550390E0861762
:10277000970709F0A4CFBC018EEE90E08DDD83E0D9
:10278000000F111F8A95E1F7809144039091450352
:10279000A6016DE473E0800F911F0E94DA238091FF
:1027A000570390915803019699279093580380936B
:1027B000570385CF8AE0E816F1040CF49CCF7FCF55
:1027C000812C912C5401F12CE12C95CFCF92DF92EA
:1027D000EF92FF920F931F93CF93DF931F92CDB78A
:1027E000DEB76C017B018A01452B39F0AB0170E04B
:1027F00060E0C8010E94341C8983B701C6014CDD2A
:1028000081110DC00115110551F0B701C8017DDD21
:10281000811105C061E070E0CE01019676DD0F9078
:10282000DF91CF911F910F91FF90EF90DF90CF90AC
:102830000895CF92DF92EF92FF92CF93DF93CDB7BF
:10284000DEB728970FB6F894DEBF0FBECDBF6B0181
:10285000F12CE12CC982DA82EB82FC822D833E834B
:102860004F835887AE014F5F5F4F68E070E0AEDF87
:1028700028960FB6F894DEBF0FBECDBFDF91CF9183
:10288000FF90EF90DF90CF9008958F929F92AF923C
:10289000BF92CF92DF92EF92FF920F931F93CF934D
:1028A000DF937C01EB01CA0169016FDD0097B1F490
:1028B0002FEF3FEFA90161E070E0C701BADFC1E08F
:1028C0008C2FDF91CF911F910F91FF90EF90DF90B0
:1028D000CF90BF90AF909F908F900895FC01819012
:1028E0009190A190B190BF01FCE1EF16F10479F451
:1028F000A5019401CE010E942408C82FA5019401CE
:10290000882369F061E070E0C70193DFD9CF9501BA
:102910008401AB01B601CE010E942706EECF70E024
:1029200060E0C701DF91CF911F910F91FF90EF9071
:10293000DF90CF90BF90AF909F908F907ACF0F9302
:102940001F93CF93DF93EC018B014CDC90934903F1
:10295000809348030097A9F0A801BE01E2DBEC01D7
:10296000892B49F0809148039091490385DC1092AE
:10297000490310924803CE01DF91CF911F910F912F
:102980000895CAE2D2E0EECF8091480390914903C6
:1029900070CC2F923F924F925F926F927F928F9264
:1029A0009F92AF92BF92CF92DF92EF92FF920F93DE
:1029B0001F93CF93DF93CDB7DEB769970FB6F89427
:1029C000DEBF0FBECDBF20914C032223F1F05B8B05
:1029D0004A8B6E877F87888B998B9A01AB01BC01EC
:1029E000CE0101967C019AD910E048E0242E312CCA
:1029F000E88EF98E89819A81181619060CF450C256
:102A0000112319F08A899B89A3DC69960FB6F89483
:102A1000DEBF0FBECDBFDF91CF911F910F91FF9011
:102A2000EF90DF90CF90BF90AF909F908F907F906E
:102A30006F905F904F903F902F900895EB81FC81B5
:102A40008C859D8533E0880F991F3A95E1F7E80F53
:102A5000F91F8081918190934303809342032481E5
:102A60003581428153815093410340934003468115
:102A7000578150933F0340933E03820F931F9C0165
:102A8000990F440B550B2C8B3D8B4E8B5F8B812C00
:102A9000912C54018C899D89AE89BF89881699062D
:102AA000AA06BB0638F18C859D85880F991FED819C
:102AB000FE81E80FF91F4E855F85688979898081DD
:102AC00091810E94F009AC85BD851196BD87AC87C8
:102AD00089819A81EC85FD85E817F9070CF4AECF62
:102AE0002A893B894E855F8568897989888D998D8A
:102AF00015D980CF1F826091420370914303CB01AF
:102B0000072E000CAA0BBB0B84017501640134E095
:102B1000C30ED11CE11CF11CC816D906EA06FB063F
:102B200008F0B3C02091400330914103A4014C5FF1
:102B30005F4F240F351FF901C080D12CF12CE12CFF
:102B400024013501F5E04F0E511C611C711C481623
:102B500059066A067B0608F0A3C020914003309115
:102B60004103F8013596E20FF31F2081D22A240198
:102B7000350126E0420E511C611C711C4816590695
:102B80006A067B0608F097C020914003309141030C
:102B9000F8013696E20FF31F2081E22A2401350165
:102BA00037E0430E511C611C711C481659066A0619
:102BB0007B0608F08BC02091400330914103F8015F
:102BC0003796E20FF31F208126013701722A750123
:102BD000640148E0C40ED11CE11CF11C8C159D055C
:102BE000AE05BF0508F41DC188169906AA06BB06E6
:102BF00008F077C08091400390914103800F911FAE
:102C000068E070E082DBE0914203F09143039F01B2
:102C10000F2E000C440B550BD301C2018C0D9D1DD2
:102C2000AE1DBF1D281739074A075B0708F478C097
:102C3000C216D306E406F50608F05DC08091400395
:102C4000909141039801285F3F4F820F931FB2017B
:102C50005CDB8091420390914303AC01092E000C90
:102C6000660B770BC416D506E606F70608F04DC0CE
:102C7000085F1F4F8091400390914103800F911F87
:102C8000A20170E060E0F0D5A7C044E050E0461B30
:102C9000570B480D591D20913E0330913F0349CFFA
:102CA000E5E0F0E0E61BF70BE00FF11F20913E039B
:102CB00030913F0358CFE6E0F0E0E61BF70BE00F62
:102CC000F11F20913E0330913F0364CFE7E0F0E035
:102CD000E61BF70BE00FF11F20913E0330913F03FD
:102CE00070CF9801261B370B80913E0390913F03D4
:102CF000820F931F85CF91012E1B3F0B200F311F99
:102D000080913E0390913F03A0CFD101A81BB90B46
:102D1000CD01080F191F80913E0390913F03AECF64
:102D2000BF0168507109601B710BC216D306E4061F
:102D3000F50608F062C0809140039091410398012C
:102D4000285F3F4F820F931FE0DA809142039091FA
:102D50004303B101681B790B600F711F640D751D72
:102D600080913E0390913F03D0DA8091420390918D
:102D70004303AC0148505109FA01E01BF10BAC01CF
:102D8000092E000C660B770BC416D506E606F7066F
:102D900008F03DC080914003909141039801285F65
:102DA0003F4F820F931FAF0170E060E05DD58F83CE
:102DB0002091420330914303F101E21BF30B9F0189
:102DC000200F311F240D351D50E040E0682F809109
:102DD0003E0390913F0334D58F8361E070E0CE01D4
:102DE000079693DA182F38E0430E511C611C711CB2
:102DF000840C951CA61CB71C4DCE91012E1B3F0BBD
:102E0000200F311F80913E0390913F039BCF910192
:102E1000281B390B200F311F80913E0390913F03F7
:102E2000C0CF88169906AA06BB0668F5601B710B11
:102E30008091400390914103800F911F66DA809149
:102E4000420390914303B101681B790B600F711F1E
:102E5000640D751D80913E0390913F0356DA809179
:102E6000420390914303AC01092E000C660B770BD3
:102E7000C416D506E606F70608F4FACE9101281B1B
:102E8000390BC90146CFC801861B970B20913E0321
:102E900030913F03B201685F7F4F820F931FDECFF7
:102EA0001D861C8615CECF93DF93EC01AC0160E04C
:102EB00070E0CB016EDDAE0161E070E080E090E09B
:102EC000DF91CF9166CDCF938091480390914903D4
:102ED0008CD9C82F81110BC060E070E0CB010E943B
:102EE000E70461E070E080E090E00E94E7048C2F4E
:102EF000CF9108950F931F9389019A01AB01BC01F3
:102F00008091480390914903B8D91F910F9108957A
:102F10004F925F926F927F928F929F92AF92BF92E9
:102F2000CF92DF92EF92FF920F931F93CF93DF9395
:102F3000CDB7DEB763970FB6F894DEBF0FBECDBF37
:102F40006C018B015A0180914C03882309F43DC028
:102F500080914C03882309F442C080914B031A826C
:102F60001982882309F4BEC0F0E94F2EFFE55F2ED9
:102F700066246394712CF12CE12C97012C5C3C4F5E
:102F8000AE014F5F5F4F61E070E080914803909128
:102F900049034BD9982E811169C089819A81E80E25
:102FA000F91EE114F10409F461C081E0481A5108E6
:102FB0006108710859F560915703709158038DEEBF
:102FC00090E06AD91A82198251C06CE473E0809152
:102FD00048039091490352D9882309F4B9CF6396E5
:102FE0000FB6F894DEBF0FBECDBFDF91CF911F911A
:102FF0000F91FF90EF90DF90CF90BF90AF909F9098
:103000008F907F906F905F904F900895AAE0EA169E
:10301000F10409F061C049E050E070E060E084E351
:1030200093E026D46091570370915803882309F4E4
:1030300050C080913C0390E08617970719F6BC01B9
:103040008EEE90E029D988E0E4E3F3E0DE01199602
:1030500001900D928A95E1F7809157039091580362
:1030600001969927909358038093570381E0298113
:103070003A81121613060CF080E09110C8C2882322
:1030800009F4ADCF80914B03811104C019861A86D3
:103090001B861C8689859A85AB85BC858031910508
:1030A000A105B10508F09BCFFC01E75AF74E0C943F
:1030B0008122D918981A071BEF17DD19101AC918A1
:1030C000D118AD18EC1ADB1AE81AEF17EF17EF1743
:1030D00098188FEE90E075CFBAE0EB16F1040CF47F
:1030E0004CCFC4CFF12CE12CE8E06E2E712C29E0FE
:1030F00030E02C0F3D1F2E0D3F1DAE014F5F5F4F87
:10310000B3016E197F0980914803909149038DD8CE
:10311000982E29813A81811109C0E20EF31EE11433
:10312000F10421F0E8E0EE16F1040CF381E0A1CF08
:10313000D6011696ED91FC9180819181A281B38197
:1031400089839A83AB83BC83AE014F5F5F4F64E09A
:1031500070E085E190E03ADB42CF8D859E8515D900
:103160002FEF3FEFA90161E070E0009771F0FC01E3
:10317000C080D180E280F380A801C701B6010E941F
:103180006909A701960170E060E08DE190E051DBF4
:1031900026CF4D855E859801B6018BE190E075DB09
:1031A0001ECF4D855E852FEF3FEFB6018CE190E09D
:1031B000F6CFD6011496ED91FC9100811181F801B2
:1031C00082809380A080B18070E1472E512C612CC9
:1031D000712C49825A826B827C8288E090E0A0E068
:1031E000B0E08D839E83AF83B8879E012F5E3F4FF3
:1031F000AE014F5F5F4F68E070E0809148039091AF
:1032000049030E94F7108823D9F010E000E0C801BC
:1032100063960FB6F894DEBF0FBECDBFDF91CF919E
:103220001F910F91FF90EF90DF90CF90BF90AF90E4
:103230009F908F907F906F905F904F900C94512350
:1032400089899A89089709F7D801ED90FC90B8E030
:10325000EB0EF11CEE0CFF1CEE0CFF1CC7010E94D4
:10326000B5228C01892B89F249825A826B827C8239
:10327000C7010F2C000CAA0BBB0B8D839E83AF8361
:10328000B8879E012F5E3F4FAE014F5F5F4F68E0F2
:1032900070E080914803909149030E94F7108111DA
:1032A000B6CF89899A89089709F0B1CFD6011296CD
:1032B000ED91FC914081518162817381D8014D93E0
:1032C0005D936D937C9313974481558166817781DB
:1032D00014964D935D936D937C931797408551851C
:1032E0006285738518964D935D936D937C931B97C0
:1032F00084859585A685B785F80184879587A687F7
:10330000B787108A118A128A138A84E090E0A0E0BD
:10331000B0E0848B958BA68BB78B809176019091D2
:103320007701B0E0A0E0808F918FA28FB38FC501AD
:103330000B2C000CAA0BBB0B848F958FA68FB78F1D
:10334000F401D801909690E080E08A159B055CF12D
:103350009E012F5E3F4FA801B701809148039091D5
:1033600049030E94F710811152CF89899A89E81682
:10337000F90609F04CCFA70170E060E0C80174D2F3
:103380008B8B9E012F5E3F4FAE014D5E5F4F61E024
:1033900070E080914803909149030E94F71081E00A
:1033A00080934B0334CF4191519170E060E04D9395
:1033B0005D936D937D930196C8CF8D859E85AF8576
:1033C000B8890097A105B10521F481E080934A03F3
:1033D00006CE0E94C511009781F481E090E0A0E044
:1033E000B0E089839A83AB83BC83AE014F5F5F4FAC
:1033F00064E070E082E190E0AECEBC01C6010E94C4
:10340000400419821A821B821C82AE014F5F5F4FFB
:1034100064E070E082E190E0D9D98823B1F2DFCD99
:10342000D6011496ED91FC910190F081E02DE0849D
:10343000F1848FEF8983E114F10409F472C0D7019C
:103440006D907C90C280D38070E060E090E080E07E
:103450008615970594F083E190E00E944C1110E0EE
:1034600000E08111BCCD061517055CF161E070E04C
:10347000CE0101960E948511B2CD9C0143E0220F3E
:10348000331F4A95E1F7F701A281B381A20FB31F61
:103490001296ED91FC911397EE0FFF1FEC0DFD1DA1
:1034A0000190F081E02D16964D915C91E49F900182
:1034B000E59F300DF49F300D1124620F731F0196AC
:1034C000C7CFD7011296ED91FC91C80123E0880F78
:1034D000991F2A95E1F7E80FF91FA080B180A2811A
:1034E000B381AA0FBB1FAC0DBD1D2D913C918681F0
:1034F0009781289F4001299F900C389F900C1124A0
:10350000B401C5010E948511582E940150E040E09D
:103510006981C50195D18983511061CD0F5F1F4F1E
:10352000A2CF70E060E083E190E00E944C1157CDA3
:1035300050E040E070E060E081E190E047D9811127
:103540004ECD60E070E0CB010E940E0680912E030C
:10355000882329F0A80160E070E0CB011ADAA80105
:1035600060E070E0CB010E94130561E070E080E054
:1035700090E00E940E0680912E03882331F0A8016E
:1035800061E070E080E090E004DAA80161E070E0C2
:1035900080E090E00E94130510924C0310924B03C0
:1035A0001092580310925703809148039091490359
:1035B0000E94441114CD81E090E0909330038093F9
:1035C0002F0350E040E070E060E086E190E0C3CD82
:1035D00081E0F501808303CD8D859E850E94C51114
:1035E0002FEF3FEFA90161E070E0009769F0DC0187
:1035F000CD90DD90ED90FC90C701B6010E94C90905
:10360000A701960170E060E08EE190E0C0CDC801B6
:103610000E94A811E4CCCF92DF92EF92FF92CF9359
:10362000DF93EC01C12CD12C7601C701B6010E94B9
:103630000E06AE01C701B601ACD9AE01C701B60195
:103640000E9413058091440390914503009731F047
:103650000E9451231092450310924403CA94CD282E
:10366000CE28CF2879F580914B03F12C882351F097
:1036700050E040E070E060E084E190E0A7D8F82EF0
:1036800010924B0380914C03882341F010924C031D
:1036900081E090E0909377018093760180914803D8
:1036A000909149030E9447118091480390914903EA
:1036B0000E943C118F2DDF91CF91FF90EF90DF9012
:1036C000CF900895C12CD12C7601C394AECFCF9367
:1036D000DF93EC01AC0160E070E0CB010E94FE0DD5
:1036E000AE0161E070E080E090E0DF91CF910C945A
:1036F000FE0D60E070E0CB010E946B0E61E070E0B7
:1037000080E090E00C946B0ECF92DF92EF92FF92EC
:103710000F931F93CF93DF93EC016A017B0100E0CD
:1037200010E098010E94190A01E010E020E030E06A
:10373000B701A601CE010E94190ADF91CF911F9116
:103740000F91FF90EF90DF90CF90089568EE73E0B7
:1037500080E090E0C2D390E080E0089526E040E071
:1037600050E16EE070E086E693E084D586E693E073
:10377000B7D4892B21F086E693E0CCD4F7CF90E044
:1037800080E00895CF92DF92EF92FF920F931F9304
:10379000CF93DF936B017A01E9011982188286E6E3
:1037A00093E09ED4892B71F18601CC24C39485E6E5
:1037B000D82E80915903811111C086E693E0AAD4D6
:1037C00085369105B1F7C0925903F801D1928F0166
:1037D00088819981019699838883EBCF888199812B
:1037E0008E159F0578F486E693E094D48F3F980772
:1037F000A9F3F80181938F018881998101969983BA
:103800008883ECCF90E080E0DF91CF911F910F9102
:10381000FF90EF90DF90CF9008950F931F93CF9379
:10382000DF93EA01890186E693E008D6F801D183A7
:10383000C08390E080E0DF91CF911F910F910895B8
:10384000DC01A40FB51F420F531F9D01281B390B2C
:103850002417350710F0862F0895ED91E627F0E044
:10386000E859FF4F6491F1CF9A01AB016FEFE8CFB8
:10387000CF93FC01E60FF71FE40FF51FC081F4DFC3
:1038800091E0C81390E0892FCF91089580915A0359
:1038900091E0980F90935A03882349F021E030E09B
:1038A00030935C0320935B0380935A0308957894CC
:1038B0000E946401F89480915A03815080935A03C6
:1038C0000C94E80FFF920F931F93CF93DF931F92F7
:1038D000CDB7DEB710923B0410923A0434D30E9465
:1038E0003A1000918D0110918E01F8011182108221
:1038F00070E060E090E080E00E94F00F0E945502CE
:103900007894C80182960E94EF0F81E090E00E94B7
:10391000EC0F1982AE014F5F5F4F61E070E0F8017C
:10392000828193810E949C0F8981882319F081E014
:10393000F80186A30E94F50FF8940E947010F80118
:1039400080819181892B19F481E096A1911180E009
:1039500080933A0478947894FF24F39480913A0405
:10396000811110C00E94080381E090E00E94ED0FD9
:10397000F89490E080E00F90DF91CF911F910F912C
:10398000FF9008951982AE014F5F5F4F61E070E0D4
:10399000F801828193810E94D40F8981882311F0DC
:1039A000F801F6A2F80180819181892B89F481E0E8
:1039B00096A1911101C080E080933B0490913B045B
:1039C00081E0911180E080933A040E948F10C6CF6D
:1039D00081E0F2CF5058BB27AA270ED057C148D15B
:1039E00030F04DD120F031F49F3F11F41EF43DC171
:1039F0000EF4E095E7FB0AC1E92F59D180F3BA171D
:103A0000620773078407950718F071F49EF588C163
:103A10000EF4E0950B2EBA2FA02D0B01B9019001E9
:103A20000C01CA01A0011124FF27591B99F0593F2D
:103A300050F4503E68F11A16F040A22F232F342F75
:103A40004427585FF3CF469537952795A795F040C3
:103A50005395C9F77EF41F16BA0B620B730B840BD8
:103A6000BAF09150A1F0FF0FBB1F661F771F881F90
:103A7000C2F70EC0BA0F621F731F841F48F48795E8
:103A800077956795B795F7959E3F08F0B3CF9395D7
:103A9000880F08F09927EE0F97958795089529D1FB
:103AA00080F09F3740F491110EF43BC160E070E06C
:103AB00080E89FE3089526F01B16611D711D811D8E
:103AC000ABC0C5C07FD008F481E00895F8D088F07D
:103AD0009F5790F0B92F9927B751A0F0D1F0660FFA
:103AE000771F881F991F1AF0BA95C9F712C0B13015
:103AF00081F016D1B1E0089513C1672F782F882780
:103B0000B85F39F0B93FCCF3869577956795B39553
:103B1000D9F73EF490958095709561957F4F8F4FC2
:103B20009F4F0895E89409C097FB3EF490958095C7
:103B3000709561957F4F8F4F9F4F9923A9F0F92F73
:103B400096E9BB279395F695879577956795B795F1
:103B5000F111F8CFFAF4BB0F11F460FF1BC06F5FD7
:103B60007F4F8F4F9F4F16C0882311F096E911C0E9
:103B7000772321F09EE8872F762F05C0662371F00A
:103B800096E8862F70E060E02AF09A95660F771F1E
:103B9000881FDAF7880F9695879597F90895A9D029
:103BA00080F09F3740F491110EF0BBC060E070E0F0
:103BB00080E89FEB089526F41B16611D711D811D81
:103BC0002BC045C0990F0008550FAA0BE0E8FEEF87
:103BD00016161706E807F907C0F012161306E407D1
:103BE000F50798F0621B730B840B950B39F40A26CA
:103BF00061F0232B242B252B21F408950A2609F4A8
:103C0000A140A6958FEF811D811D089597F99F67AB
:103C100080E870E060E00895882371F4772321F054
:103C20009850872B762F07C0662311F499270DC073
:103C30009051862B70E060E02AF09A95660F771F0E
:103C4000881FDAF7880F9695879597F908959F3F13
:103C500031F0915020F4879577956795B795880F47
:103C6000911D9695879597F908959FEF80EC08959B
:103C700000240A941616170618060906089500244B
:103C80000A9412161306140605060895092E0394C5
:103C9000000C11F4882352F0BB0F40F4BF2B11F439
:103CA00060FF04C06F5F7F4F8F4F9F4F089557FD98
:103CB0009058440F551F59F05F3F71F04795880F9A
:103CC00097FB991F61F09F3F79F087950895121631
:103CD00013061406551FF2CF4695F1DF08C01616DD
:103CE00017061806991FF1CF86957105610508948E
:103CF0000895E5DFA0F0BEE7B91788F4BB279F3829
:103D000060F41616B11D672F782F8827985FF7CFBC
:103D1000869577956795B11D93959639C8F3089563
:103D2000E894BB2766277727CB0197F908954ADFE8
:103D300008F48FEF08950BD0A9CF9ADF28F09FDF0A
:103D400018F0952309F062CF90CF1124EACFAFDFAE
:103D5000A0F3959FD1F3950F50E0551F629FF0019E
:103D6000729FBB27F00DB11D639FAA27F00DB11DF7
:103D7000AA1F649F6627B00DA11D661F829F222780
:103D8000B00DA11D621F739FB00DA11D621F839F07
:103D9000A00D611D221F749F3327A00D611D231FDD
:103DA000849F600D211D822F762F6A2F11249F572B
:103DB00050408AF0E1F088234AF0EE0FFF1FBB1F4E
:103DC000661F771F881F91505040A9F79E3F5105ED
:103DD00070F01CCFA6CF5F3FECF3983EDCF38695E6
:103DE00077956795B795F795E7959F5FC1F7FE2B98
:103DF000880F911D9695879597F908951F920F92B8
:103E00000FB60F9211242F933F938F939F93AF93ED
:103E1000BF9380915E0390915F03A0916003B09186
:103E2000610330915D0323E0230F2D3758F5019690
:103E3000A11DB11D20935D0380935E0390935F03EA
:103E4000A0936003B0936103809162039091630338
:103E5000A0916403B09165030196A11DB11D8093EB
:103E6000620390936303A0936403B0936503BF91CF
:103E7000AF919F918F913F912F910F900FBE0F9017
:103E80001F90189526E8230F0296A11DB11DD2CFD1
:103E90003FB7F8948091620390916303A09164030B
:103EA000B091650326B5A89B05C02F3F19F0019678
:103EB000A11DB11D3FBFBA2FA92F982F8827BC0184
:103EC000CD01620F711D811D911D42E0660F771FAC
:103ED000881F991F4A95D1F708958F929F92AF92AC
:103EE000BF92CF92DF92EF92FF926B017C01D0DF05
:103EF0004B015C01C114D104E104F104D9F0CBD22F
:103F0000C7DF681979098A099B09683E73408105F2
:103F1000910580F321E0C21AD108E108F10888EE8A
:103F2000880E83E0981EA11CB11CC114D104E104C9
:103F3000F10431F7FF90EF90DF90CF90BF90AF90FA
:103F40009F908F900895789484B5826084BD84B5E5
:103F5000816084BD85B5826085BD85B5816085BD84
:103F6000EEE6F0E0808181608083E1E8F0E010829D
:103F7000808182608083808181608083E0E8F0E0DE
:103F8000808181608083E1EBF0E0808184608083C8
:103F9000E0EBF0E0808181608083EAE7F0E08081FF
:103FA000846080838081826080838081816080835F
:103FB0008081806880831092C1000895833081F0F1
:103FC00028F4813099F08230A9F008958730A9F063
:103FD0008830C9F08430B1F4809180008F7D03C0B7
:103FE000809180008F7780938000089584B58F77CB
:103FF00084BD089584B58F7DFBCF8091B0008F770D
:104000008093B00008958091B0008F7DF9CFCF9359
:10401000DF9390E0FC01E458FE4F249180579E4FBF
:10402000FC0184918823C9F090E0880F991FFC015E
:10403000E255FE4FA591B491FC01EC55FE4FC591A0
:10404000D49161110DC09FB7F8948C912095822373
:104050008C938881282328839FBFDF91CF91089577
:10406000623051F49FB7F8943C91822F809583235E
:104070008C93E8812E2BEFCF8FB7F894EC912E2BF9
:104080002C938FBFEACF1F93CF93DF93282F30E07D
:10409000F901E859FE4F8491F901E458FE4FD4919B
:1040A000F901E057FE4FC491CC23A1F0162F8111E6
:1040B00085DFEC2FF0E0EE0FFF1FEC55FE4FA591D2
:1040C000B4918FB7F894EC91111108C0D095DE230C
:1040D000DC938FBFDF91CF911F910895DE2BF8CF36
:1040E000FC01918D228D892F90E0805C9F4F821B77
:1040F00091098F7399270895FC01918D828D9817EE
:1041000031F0828DE80FF11D858D90E008958FEFDD
:104110009FEF0895FC01918D828D981761F0A28D1B
:10412000AE0FBF2FB11D5D968C91928D9F5F9F73D7
:10413000928F90E008958FEF9FEF0895FC01538DCB
:10414000448D252F30E0842F90E0821B930B541771
:1041500010F0CF96089501970895FC01A48DA80F43
:10416000B92FB11DA35ABF4F2C91848D90E00196B9
:104170008F739927848FA689B7892C93A089B189D9
:104180008C91837080648C93938D848D981306C07A
:104190000288F389E02D80818F7D80830895CF93FD
:1041A000DF93EC01888D8823B1F0AA89BB89E88967
:1041B000F9898C9185FD03C0808186FD0CC00FB606
:1041C00007FCF7CF8C9185FFF2CF808185FFEDCF83
:1041D000CE01C3DFEACFDF91CF910895EF92FF9236
:1041E0000F931F93CF93DF93EC0181E0888F9B8D1A
:1041F0008C8D98131AC0E889F989808185FF15C0D4
:104200009FB7F894EE89FF896083E889F9898081F6
:104210008370806480839FBF81E090E0DF91CF91C5
:104220001F910F91FF90EF900895F62E0B8D10E0E7
:104230000F5F1F4F0F731127E02E8C8D8E110BC057
:104240000FB607FCFACFE889F989808185FFF5CFA1
:10425000CE0183DFF2CFEB8DEC0FFD2FF11DE35A82
:10426000FF4FF0829FB7F8940B8FEA89FB8980811A
:104270008062D0CFCF92DF92EF92FF921F93CF93C5
:10428000DF93EC016A017B01122FE889F98982E052
:104290008083C11481EED806E104F10499F060E056
:1042A00079E08DE390E0A701960109D12150310911
:1042B000410951095695479537952795211580E174
:1042C000380790F0E889F989108260E874E88EE197
:1042D00090E0A7019601F3D021503109410951091D
:1042E0005695479537952795EC85FD853083EE8566
:1042F000FF852083188EEC89FD891083EA89FB896C
:10430000808180618083EA89FB89808188608083E5
:10431000EA89FB89808180688083EA89FB898081C2
:104320008F7D8083DF91CF911F91FF90EF90DF9081
:10433000CF9008951F920F920FB60F9211242F93D2
:104340008F939F93EF93FF93E0917603F091770320
:104350008081E0917C03F0917D0382FD1BC0908100
:1043600080917F038F5F8F7320918003821741F0CC
:10437000E0917F03F0E0EA59FC4F958F80937F0333
:10438000FF91EF919F918F912F910F900FBE0F9002
:104390001F9018958081F4CF1F920F920FB60F9245
:1043A00011242F933F934F935F936F937F938F933A
:1043B0009F93AF93BF93EF93FF9386E693E0CDDE99
:1043C000FF91EF91BF91AF919F918F917F916F91ED
:1043D0005F914F913F912F910F900FBE0F901F90C3
:1043E0001895E6E6F3E01382128288EE93E0A0E0EF
:1043F000B0E084839583A683B78389E692E09183B6
:10440000808385EC90E09587848784EC90E09787A3
:10441000868780EC90E0918B808B81EC90E0938B91
:10442000828B82EC90E0958B848B86EC90E0978B6E
:10443000868B118E128E138E148E0895AF92BF92BA
:10444000CF92DF92EF92FF920F931F93CF93DF9360
:104450006C017B018B01040F151FEB015E01AE188F
:10446000BF08C017D10759F06991D601ED91FC91B1
:104470000190F081E02DC6010995892B79F7C501DE
:10448000DF91CF911F910F91FF90EF90DF90CF9030
:10449000BF90AF900895089597FB072E16F40094EF
:1044A00006D077FD08D033D007FC05D03EF49095B8
:1044B00081959F4F0895709561957F4F0895A1E272
:1044C0001A2EAA1BBB1BFD010DC0AA1FBB1FEE1F8E
:1044D000FF1FA217B307E407F50720F0A21BB30BD9
:1044E000E40BF50B661F771F881F991F1A9469F755
:1044F00060957095809590959B01AC01BD01CF01B1
:104500000895EE0FFF1F0590F491E02D0994AA1B6A
:10451000BB1B51E107C0AA1FBB1FA617B70710F0AE
:10452000A61BB70B881F991F5A95A9F780959095E0
:10453000BC01CD0108950F931F93CF93DF93869F06
:104540008001879F100D969F100D1124C8010DD07A
:10455000EC01009721F0A80170E060E034D1CE01B9
:10456000DF91CF911F910F9108950F931F93CF93D8
:10457000DF938230910510F482E090E0E0913E04F8
:10458000F0913F0430E020E0B0E0A0E0309799F4F3
:104590002115310509F44AC0281B390B2430310597
:1045A000D8F58A819B816115710589F1FB0193839F
:1045B0008283FE0111C0408151810281138148171D
:1045C0005907E0F04817590799F4109761F01296CF
:1045D0000C93129713961C933296CF01DF91CF91D3
:1045E0001F910F91089500933E0410933F04F4CF60
:1045F0002115310551F04217530738F0A901DB01AD
:104600009A01BD01DF01F801C1CFEF01F9CF90930D
:104610003F0480933E04CDCFFE01E20FF31F819350
:1046200091932250310939832883D7CF20913C04BC
:1046300030913D04232B41F420910201309103017C
:1046400030933D0420933C042091000130910101FE
:104650002115310541F42DB73EB740910401509129
:104660000501241B350BE0913C04F0913D04E21759
:10467000F307A0F42E1B3F0B2817390778F0AC0185
:104680004E5F5F4F2417350748F04E0F5F1F509362
:104690003D0440933C04819391939FCFF0E0E0E090
:1046A0009CCFCF93DF930097E9F0FC013297138200
:1046B0001282A0913E04B0913F04ED0130E020E071
:1046C0001097A1F420813181820F931F20913C0427
:1046D00030913D042817390709F061C0F0933D047B
:1046E000E0933C04DF91CF910895EA01CE17DF07F4
:1046F000E8F54A815B819E0141155105B1F7E90159
:10470000FB83EA8349915991C40FD51FEC17FD072C
:1047100061F4808191810296840F951FE90199834C
:104720008883828193819B838A83F0E0E0E0129604
:104730008D919C9113970097B9F52D913C9111970C
:10474000CD010296820F931F20913C0430913D04CD
:104750002817390739F6309751F510923F04109217
:104760003E04B0933D04A0933C04BCCFD383C283EA
:1047700040815181840F951FC817D90761F44E5F9E
:104780005F4F88819981480F591F518340838A81E7
:104790009B81938382832115310509F0B0CFF0937B
:1047A0003F04E0933E049ECFFD01DC01C0CF1382A5
:1047B0001282D7CFFB01DC0102C001900D92415063
:1047C0005040D8F70895DC0101C06D93415050402E
:1047D000E0F70895FB01DC018D9101908019011033
:0A47E000D9F3990B0895F894FFCF68
:1047EA0000004004800002000A016201000000008B
:1047FA000400720103000000020001001E0103040C
:10480A000E00000002008F019601A0019F01A8017D
:10481A00A701B101B001B901C301CE01D401DE0182
:10482A00E701FB010400040001000100020002008C
:10483A000400040001000400020002000400080051
:10484A0008000000A040000000000000A040000096
:10485A00000001000101010053696D756C61746902
:10486A006F6E2066696E697368656400011304726D
:10487A0065616C5F54007265616C33325F54007518
:10488A00696E74385F540075696E7431365F54000E
:10489A0075696E7433325F5400626F6F6C65616E56
:1048AA005F540066636E5F63616C6C5F5400696E8F
:1048BA00745F5400706F696E7465725F540061634F
:1048CA0074696F6E5F540074696D65725F75696EA5
:1048DA007433325F706169725F5400636F6465722A
:1048EA007461726765745F61726475696E6F626123
:1048FA0073655F626C6F636B5F54002D77002D697F
:10490A00676E6F72652D61726700436F756C642004
:10491A006E6F742063726561746520657874657260
:10492A006E616C206D6F64652075736572206461B9
:10493A0074612E20204F7574206F66206D656D6F2F
:10494A0072792E0A0000000000EE201E229E20CF5F
:08495A002070208A207C20005F
:00000001FF
