:100000005CC0000081C000007FC000007DC0000017
:100010007BC0000079C0000077C0000075C0000000
:1000200073C0000071C000006FC000006DC0000010
:100030006BC00000B4C3000067C0000065C00000D2
:1000400009C5000061C00000BCC70000ECC700008B
:100050005BC0000059C0000057C0000055C0000040
:1000600053C0000051C00000000000080002010061
:100070000003040700000000000000000102040863
:100080001020408001020408102001020408102002
:10009000040404040404040402020202020203032E
:1000A0000303030300000000250028002B000000CC
:1000B0000000240027002A00380811241FBECFEFBB
:1000C000D8E0DEBFCDBF11E0A0E0B1E0E8E7F1E1AC
:1000D00002C005900D92AA31B107D9F722E0AAE13A
:1000E000B1E001C01D92AB34B207E1F710E0CDE5FD
:1000F000D0E004C02197FE010E94B408CC35D1079E
:10010000C9F7AFD30C94BA087BCF0895CF92DF9292
:10011000EF92FF92CF93882331F16A017B01CFEFF9
:10012000C80F20E030E0A901CB01B601D0D387FF92
:1001300010C0C701B6019058D3D39B01AC016C2FFE
:1001400070E090E080E0CF91FF90EF90DF90CF9053
:10015000ACC0C701B601BFD38C2FCF91FF90EF90F9
:10016000DF90CF9017C5CF91FF90EF90DF90CF90A9
:1001700008950F931F938B019C0183E0369527957B
:10018000179507958A95D1F7065E1E4F462F477043
:1001900021E030E0F90102C0EE0FFF1F4A95E2F7BF
:1001A000AF01F80120812423CB010196211102C067
:1001B00090E080E01F910F9108950F931F938B01A2
:1001C0009C0183E036952795179507958A95D1F779
:1001D000677081E090E001C0880F6A95EAF7F80146
:1001E000E65EFE4F2081452B31F48095822380838B
:1001F0001F910F910895822BFACF2F923F924F9229
:100200005F926F927F928F929F92AF92BF92CF92A6
:10021000DF92EF92FF920F931F93CF93DF93D62E2F
:10022000C72E782E692E49015A01280161E08D2DD3
:1002300035D5CD2DDC2D8E010F5F1F4FA8016D2D03
:100240007C2D872D962DB9DF20E030E0A901C20179
:10025000B701FCD3181654F4C201B70141D32B01E6
:10026000C501B4013DD3A201CE0122D0C801DF9166
:10027000CF911F910F91FF90EF90DF90CF90BF90A3
:10028000AF909F908F907F906F905F904F903F9036
:100290002F900895882341F08150682F70E090E0FE
:1002A00080E050E040E089CF0895862FB90172C404
:1002B0009C01FC01E859FF4FE491E33059F138F417
:1002C000E13009F1E23019F160E0822F23C5E73017
:1002D000C1F1E83009F441C0E430B1F78091800009
:1002E0008C7F82608093800090918100907E9061ED
:1002F000692B609381005093870040938600809122
:10030000800080621BC084B5806884BDDDCF84B569
:100310008062FBCF809180008C7F82608093800020
:1003200090918100907E9061692B60938100509341
:1003300087004093860080918000806880938000D1
:10034000C3CF8091B00080688093B0008091B100ED
:10035000887F682B6093B100B7CF8091B000806236
:10036000F3CFCF93DF93882341F0EB018150F7D394
:1003700099838883DF91CF910895FB0111821082C8
:10038000F9CF0F931F938B019C0183E0369527953E
:10039000179507958A95D1F70D5D1E4F462F47702B
:1003A00021E030E0F90102C0EE0FFF1F4A95E2F7AD
:1003B000AF01F80120812423CB010196211102C055
:1003C00090E080E01F910F9108950F931F938B0190
:1003D0009C0183E036952795179507958A95D1F767
:1003E000677081E090E001C0880F6A95EAF7F80134
:1003F000ED5DFE4F2081452B31F480958223808373
:100400001F910F910895822BFACFCF92DF92EF9236
:10041000FF92CF93DF936B017C0160E08EE0C81602
:10042000D104E104F10488F48EE08C0D37D4E601A8
:100430002196AE01C701B601C8DFCE01DF91CF9191
:10044000FF90EF90DF90CF9008958C2DEFCF882311
:1004500041F08150682F70E090E080E050E040E093
:10046000B4CF0895CF92DF92EF92FF920F931F9334
:10047000CF93DF9300D0CDB7DEB7C0900001D0900E
:100480000101E0900201F0900301A7019601609143
:10049000ED017091EE018091EF019091F00117D282
:1004A000882341F0C092ED01D092EE01E092EF017D
:1004B000F092F0016EE070E080E090E062DF9093F7
:1004C000EC018093EB0143E050E0BE016F5F7F4F92
:1004D00048DF6091E1017091E2018091E301909128
:1004E000E40147DE8C019093E0018093DF01698194
:1004F0007A8190E080E020D26B017C0120E030E046
:100500004FE753E4E4D187FD06C0C12CD12C8FE71F
:10051000E82E83E4F82EB701A601C801F7DD0F909D
:100520000F90DF91CF911F910F91FF90EF90DF908F
:10053000CF9008958F929F92AF92BF92DF92EF92E9
:10054000FF920F931F93CF93DF9384E090E0E5D069
:10055000C7EDD1E01E868091000190910101A0912C
:100560000201B09103018E8B9F8BA88FB98F1B8ADC
:10057000812C912C540183948F86988AA98ABA8AF7
:100580006EE070E080E090E040DF9D8B8C8BDD249E
:10059000D394DB8A188222E32AA793E39BA784E300
:1005A0008CA785E38DA786E38EA787E38FA788E3D3
:1005B00088AB89E389AB81E38AAB30E33BAB8CAB9F
:1005C0008DAB8EAB2FAB88AF99AF81E092E09F836C
:1005D0008E8385E090E0A0E0B0E08A879B87AC87BF
:1005E000BD871D8289829A82AB82BC82E12CF12C6C
:1005F0008701A801970165E070E080E090E0FDDDF3
:10060000998788876A857B858C859D85B2DD9987EA
:1006100088877BDDDD82DF91CF911F910F91FF9065
:10062000EF90DF90BF90AF909F908F900895809152
:10063000E50181111DC081E08093E5018091E60113
:100640009091E701A091E801B091E9010197A1051E
:10065000B10571F48091EA01882351F06EE070E0F9
:1006600080E090E08EDE9093EC018093EB01EFDE72
:100670008091D701811132C081E08093D7018091B0
:10068000D8019091D901A091DA01B091DB010197D5
:10069000A105B10519F58091DC018823F9F060917D
:1006A000E1017091E2018091E3019091E40161DD4B
:1006B0009093E0018093DF0140E050E0BA0126DD35
:1006C0006091E1017091E2018091E3019091E40178
:1006D00050DD9093E0018093DF01DCCD089560E070
:1006E00070E080E89FE7089560E070E080E89FE7B1
:1006F000089560E070E080E89FEF089560E070E0AA
:1007000080E89FEF089560E070E080EC9FEF08952F
:1007100060E070E080EC9FEF0895F5DF60933D02AC
:1007200070933E0280933F0290934002F1DF60930A
:100730003102709332028093330290933402CFDF00
:100740006093390270933A0280933B0290933C028B
:10075000CBDF60933502709336028093370290931B
:100760003802C7DF609341027093420280934302D4
:1007700090934402C3DF60934502709346028093D6
:10078000470290934802089540E855E260E070E027
:1007900090E080E000C026E088E391E0B2C31F92C1
:1007A0000F920FB60F9211242F933F934F935F93A5
:1007B0006F937F938F939F93AF93BF93EF93FF9329
:1007C0008FE89DEF909385008093840032D0FF9155
:1007D000EF91BF91AF919F918F917F916F915F91B9
:1007E0004F913F912F910F900FBE0F901F90189532
:1007F0008FE89DEF9093850080938400AFE6B0E092
:100800008C918E7F8C93E0E8F0E080818C7F8083F8
:10081000E1E8F0E08081877E80838081846080834E
:1008200080818C7F80838C9181608C93089581E09E
:10083000089580912C0191E0980F90932C018823CA
:1008400049F021E030E030932E0120932D01809378
:100850002C010895789406DEF89480912C01815043
:10086000F6CFCF93DF9310924A02109249023CD107
:100870008BDFC0910501D0910601198218825ADEE2
:10088000B7DF81E028813981232B09F080E0809354
:1008900049027894789480914902811107C0C7DE9B
:1008A000F89490E080E0DF91CF91089581E0288175
:1008B0003981232B09F480E080934A0290914A0207
:1008C00081E0911180E080934902B1DFE4CF71D0E3
:1008D00008F481E0089504D06894B111B1C008957E
:1008E00094D088F09F5790F0B92F9927B751A0F076
:1008F000D1F0660F771F881F991F1AF0BA95C9F7B4
:1009000012C0B13081F09BD0B1E0089598C0672F3C
:10091000782F8827B85F39F0B93FCCF38695779563
:100920006795B395D9F73EF490958095709561954C
:100930007F4F8F4F9F4F0895E89409C097FB3EF477
:1009400090958095709561957F4F8F4F9F4F99231C
:10095000A9F0F92F96E9BB279395F695879577959A
:100960006795B795F111F8CFFAF4BB0F11F460FF5A
:100970001BC06F5F7F4F8F4F9F4F16C0882311F0B2
:1009800096E911C0772321F09EE8872F762F05C0C6
:10099000662371F096E8862F70E060E02AF09A9561
:1009A000660F771F881FDAF7880F9695879597F956
:1009B0000895990F0008550FAA0BE0E8FEEF1616F0
:1009C0001706E807F907C0F012161306E407F50743
:1009D00098F0621B730B840B950B39F40A2661F0B7
:1009E000232B242B252B21F408950A2609F4A1405A
:1009F000A6958FEF811D811D089557FD9058440FD6
:100A0000551F59F05F3F71F04795880F97FB991F6D
:100A100061F09F3F79F0879508951216130614062A
:100A2000551FF2CF4695F1DF08C0161617061806B7
:100A3000991FF1CF86957105610508940895E89492
:100A4000BB2766277727CB0197F90895B2DF08F413
:100A50008FEF08951F920F920FB60F9211242F93CC
:100A60003F938F939F93AF93BF9380913001909169
:100A70003101A0913201B091330130912F0123E077
:100A8000230F2D3758F50196A11DB11D20932F017D
:100A90008093300190933101A0933201B0933301E0
:100AA0008091340190913501A0913601B0913701C8
:100AB0000196A11DB11D8093340190933501A0933F
:100AC0003601B0933701BF91AF919F918F913F91C4
:100AD0002F910F900FBE0F901F90189526E8230FAF
:100AE0000296A11DB11DD2CF789484B5826084BDD9
:100AF00084B5816084BD85B5826085BD85B5816022
:100B000085BDEEE6F0E0808181608083E1E8F0E081
:100B10001082808182608083808181608083E0E8B0
:100B2000F0E0808181608083E1EBF0E0808184608F
:100B30008083E0EBF0E0808181608083EAE7F0E091
:100B400080818460808380818260808380818160F5
:100B500080838081806880831092C10008958E30E8
:100B600008F08E502091040190E4299F90011124F7
:100B70008770822B80937C0080917A0080648093C0
:100B80007A0080917A0086FDFCCF80917800909168
:100B9000790008951F93CF93DF93182FEB0161E045
:100BA0007DD0209731F460E0812FDF91CF911F91AC
:100BB000B1C0CF3FD10511F461E0F6CFE12FF0E0F5
:100BC000E859FF4FE491E33031F140F4E130B1F006
:100BD000E230E1F0C038D1057CF7E5CFE73029F10C
:100BE000E83059F1E430B1F7809180008062809361
:100BF0008000D0938B00C0938A0004C084B58068C5
:100C000084BDC7BDDF91CF911F91089584B58062E7
:100C100084BDC8BDF7CF809180008068809380003C
:100C2000D0938900C0938800EDCF8091B000806898
:100C30008093B000C093B300E5CF8091B000806294
:100C40008093B000C093B400DDCF833081F028F4EE
:100C5000813099F08230A9F008958730A9F088306A
:100C6000C9F08430B1F4809180008F7D03C0809101
:100C700080008F7780938000089584B58F7784BD3E
:100C8000089584B58F7DFBCF8091B0008F778093DE
:100C9000B00008958091B0008F7DF9CFCF93DF939E
:100CA00090E0FC01E458FF4F249180579F4FFC01D6
:100CB00084918823C9F090E0880F991FFC01E255C8
:100CC000FF4FA591B491FC01EC55FF4FC591D49114
:100CD00061110DC09FB7F8948C91209582238C935D
:100CE0008881282328839FBFDF91CF9108956230A8
:100CF00051F49FB7F8943C91822F809583238C9375
:100D0000E8812E2BEFCF8FB7F894EC912E2B2C93FC
:100D10008FBFEACF1F93CF93DF93282F30E0F901E5
:100D2000E859FF4F8491F901E458FF4FD491F9013C
:100D3000E057FF4FC491CC23A1F0162F811185DF1E
:100D4000EC2FF0E0EE0FFF1FEC55FF4FA591B49193
:100D50008FB7F894EC91111108C0D095DE23DC9385
:100D60008FBFDF91CF911F910895DE2BF8CFFC014B
:100D7000918D228D892F90E0805C9F4F821B91097D
:100D80008F7399270895FC01918D828D981731F00A
:100D9000828DE80FF11D858D90E008958FEF9FEF14
:100DA0000895FC01918D828D981761F0A28DAE0F90
:100DB000BF2FB11D5D968C91928D9F5F9F73928F17
:100DC00090E008958FEF9FEF0895FC01538D448DBF
:100DD000252F30E0842F90E0821B930B541710F0E6
:100DE000CF96089501970895FC01A48DA80FB92FFF
:100DF000B11DA35ABF4F2C91848D90E001968F7343
:100E00009927848FA689B7892C93A089B1898C9161
:100E1000837080648C93938D848D981306C00288B0
:100E2000F389E02D80818F7D80830895CF93DF93B8
:100E3000EC01888D8823B1F0AA89BB89E889F989FA
:100E40008C9185FD03C0808186FD0CC00FB607FC28
:100E5000F7CF8C9185FFF2CF808185FFEDCFCE015A
:100E6000C3DFEACFDF91CF910895EF92FF920F9306
:100E70001F93CF93DF93EC0181E0888F9B8D8C8D46
:100E800098131AC0E889F989808185FF15C09FB73A
:100E9000F894EE89FF896083E889F98980818370FD
:100EA000806480839FBF81E090E0DF91CF911F91AC
:100EB0000F91FF90EF900895F62E0B8D10E00F5FCD
:100EC0001F4F0F731127E02E8C8D8E110BC00FB6A4
:100ED00007FCFACFE889F989808185FFF5CFCE013B
:100EE00083DFF2CFEB8DEC0FFD2FF11DE35AFF4FA7
:100EF000F0829FB7F8940B8FEA89FB89808180622A
:100F0000D0CFCF92DF92EF92FF921F93CF93DF93D8
:100F1000EC016A017B01122FE889F98982E0808364
:100F2000C11481EED806E104F10499F060E079E0A3
:100F30008DE390E0A7019601F5D0215031094109D8
:100F400051095695479537952795211580E1380722
:100F500090F0E889F989108260E874E88EE190E009
:100F6000A7019601DFD02150310941095109569559
:100F7000479537952795EC85FD853083EE85FF8570
:100F80002083188EEC89FD891083EA89FB89808192
:100F900080618083EA89FB89808188608083EA8917
:100FA000FB89808180688083EA89FB8980818F7DCD
:100FB0008083DF91CF911F91FF90EF90DF90CF90D2
:100FC00008951F920F920FB60F9211242F938F93B3
:100FD0009F93EF93FF93E0914801F0914901808145
:100FE000E0914E01F0914F0182FD1BC090818091F4
:100FF00051018F5F8F7320915201821741F0E09170
:101000005101F0E0E85CFE4F958F80935101FF9114
:10101000EF919F918F912F910F900FBE0F901F9086
:1010200018958081F4CF1F920F920FB60F92112462
:101030002F933F934F935F936F937F938F939F93E0
:10104000AF93BF93EF93FF9388E391E0CDDEFF91E1
:10105000EF91BF91AF919F918F917F916F915F9130
:101060004F913F912F910F900FBE0F901F901895A9
:10107000E8E3F1E01382128288EE93E0A0E0B0E0B2
:1010800084839583A683B7838BE091E091838083EB
:1010900085EC90E09587848784EC90E0978786873D
:1010A00080EC90E0918B808B81EC90E0938B828B35
:1010B00082EC90E0958B848B86EC90E0978B868B0E
:1010C000118E128E138E148E0895AF92BF92CF920E
:1010D000DF92EF92FF920F931F93CF93DF936C01F8
:1010E0007B018B01040F151FEB015E01AE18BF08D9
:1010F000C017D10759F06991D601ED91FC9101908B
:10110000F081E02DC6010995892B79F7C501DF91A2
:10111000CF911F910F91FF90EF90DF90CF90BF90F4
:10112000AF900895A1E21A2EAA1BBB1BFD010DC0B2
:10113000AA1FBB1FEE1FFF1FA217B307E407F50787
:1011400020F0A21BB30BE40BF50B661F771F881F63
:10115000991F1A9469F760957095809590959B01F9
:10116000AC01BD01CF010895EE0FFF1F0590F49172
:08117000E02D0994F894FFCF73
:10117800000080BF01D5010000000035076508E5C3
:0A118800061607B706D106C30600DD
:00000001FF
