:1000000061C0000084C0000082C0000080C0000009
:100010007EC000007CC000007AC0000078C00000F4
:1000200076C0000074C0000072C0000070C0000004
:100030006EC0000021C300006AC0000068C000005C
:1000400073C4000064C0000033C7000063C7000031
:100050005EC000005CC000005AC0000058C0000034
:1000600056C0000054C0000000000008000201005B
:100070000003040700000000000000000102040863
:100080001020408001020408102001020408102002
:10009000040404040404040402020202020203032E
:1000A00003030303000000002300260029000000D2
:1000B0000000250028002B0000000000240027007D
:1000C0002A00AF0711241FBECFEFD8E0DEBFCDBF9F
:1000D00011E0A0E0B1E0E6E6F0E102C005900D928B
:1000E000AA32B107D9F722E0AAE2B1E001C01D921D
:1000F000A434B207E1F710E0C2E6D0E003C02197D4
:10010000FE01A9D7C136D107D1F752D3AAC778CFFC
:100110000895CF92DF92EF92FF92CF93882331F12F
:100120006A017B01CFEFC80F20E030E0A901CB01CD
:10013000B60174D387FF10C0C701B601905877D3BA
:100140009B01AC016C2F70E090E080E0CF91FF90BC
:10015000EF90DF90CF90ACC0C701B60163D38C2F76
:10016000CF91FF90EF90DF90CF9063C4CF91FF903D
:10017000EF90DF90CF9008950F931F938B019C0118
:1001800083E036952795179507958A95D1F7065DF3
:100190001E4F462F477021E030E0F90102C0EE0FFC
:1001A000FF1F4A95E2F7AF01F80120812423CB011C
:1001B0000196211102C090E080E01F910F910895F7
:1001C0000F931F938B019C0183E03695279517951C
:1001D00007958A95D1F7677081E090E001C0880F9C
:1001E0006A95EAF7F801E65DFE4F2081452B31F470
:1001F0008095822380831F910F910895822BFACFDF
:100200002F923F924F925F926F927F928F929F9226
:10021000AF92BF92CF92DF92EF92FF920F931F9314
:10022000CF93DF93D62EC72E782E692E49015A011F
:10023000280161E08D2D81D4CD2DDC2D8E010F5F45
:100240001F4FA8016D2D7C2D872D962DB9DF20E045
:1002500030E0A901C201B70163D3181654F4C201FA
:10026000B701E5D22B01C501B401E1D2A201CE0153
:1002700022D0C801DF91CF911F910F91FF90EF9095
:10028000DF90CF90BF90AF909F908F907F906F90B6
:100290005F904F903F902F900895882341F08150B8
:1002A000682F70E090E080E050E040E089CF089552
:1002B000862FB901BEC39C01FC01E859FF4FE491B0
:1002C000E33059F138F4E13009F1E23019F160E03E
:1002D000822F6FC4E730C1F1E83009F441C0E43047
:1002E000B1F7809180008C7F826080938000909134
:1002F0008100907E9061692B60938100509387000C
:10030000409386008091800080621BC084B5806825
:1003100084BDDDCF84B58062FBCF809180008C7F6F
:1003200082608093800090918100907E9061692B23
:1003300060938100509387004093860080918000F5
:10034000806880938000C3CF8091B00080688093E4
:10035000B0008091B100887F682B6093B100B7CF67
:100360008091B0008062F3CF611101C0E6C36130BB
:10037000E9F362E0FBCF4AD421E0019709F020E0E5
:10038000822F0895FC0191E08091E201811190E0BB
:10039000918308958091E2018F5F8A3018F48093F1
:1003A000E20108951092E2010895CF92DF92EF9258
:1003B000FF920F931F93CF93C0900D01D0900E0129
:1003C000E0900F01F0901001A70196016091F901F2
:1003D0007091FA018091FB019091FC011FD288235A
:1003E00041F0C092F901D092FA01E092FB01F09243
:1003F000FC0184E0C0DFC1E090911501981708F07E
:10040000C0E0809141028C1720F5209109013091C4
:100410000A0140910B0150910C0160913D027091D5
:100420003E0280913F02909140027AD218160CF061
:1004300048C08091050190910601A0910701B091FB
:10044000080180933D0290933E02A0933F02B09337
:1004500040026091ED017091EE018091EF01909169
:10046000F0018ADE8C019093EC018093EB01C09047
:100470003D02D0903E02E0903F02F090400220E02A
:1004800030E04FE753E4C701B601C8D187FF22C06F
:1004900020E030E0A901C701B60142D218161CF0D5
:1004A000C12CD12C7601B701A601C80132DEC09360
:1004B0004102CF911F910F91FF90EF90DF90CF906D
:1004C00008958091010190910201A0910301B091E2
:1004D0000401B7CFC12CD12C8FE7E82E83E4F82E8E
:1004E000E2CF8F929F92AF92BF92DF92EF92FF92F4
:1004F0000F931F93CF93DF93C3EED1E0E0E0F1E0E1
:1005000081899289A389B48980933D0290933E02A8
:10051000A0933F02B09340028081809341021E86E7
:1005200085859685A785B0898E8B9F8BA88FB98F7F
:10053000812C912C540183948F86988AA98ABA8A37
:1005400060E084E011DFDD24D394DB8A188222E3AB
:100550002AA793E39BA784E38CA785E38DA786E373
:100560008EA787E38FA788E388AB89E389AB81E314
:100570008AAB30E33BAB8CAB8DAB8EAB2FAB88AF94
:1005800099AF8DE092E09F838E8385E090E0A0E0BC
:10059000B0E08A879B87AC87BD871D8289829A825B
:1005A000AB82BC82E12CF12C8701A801970165E0A8
:1005B00070E080E090E024DE998788876A857B85FB
:1005C0008C859D85D9DD99878887A2DDDD82DF91C5
:1005D000CF911F910F91FF90EF90DF90BF90AF9060
:1005E0009F908F9008958091F101811103C081E067
:1005F0008093F1018091E301811132C081E0809309
:10060000E3018091E4019091E501A091E601B091B0
:10061000E7010197A105B10519F58091E80188234B
:10062000F9F06091ED017091EE018091EF019091F0
:10063000F001A2DD9093EC018093EB0140E050E0EB
:10064000BA0167DD6091ED017091EE018091EF01DB
:100650009091F00191DD9093EC018093EB011DCE20
:10066000089540E855E260E070E090E080E000C06E
:1006700026E082E491E0BCC31F920F920FB60F9266
:1006800011242F933F934F935F936F937F938F9397
:100690009F93AF93BF93EF93FF938FE89DEF90935A
:1006A00085008093840032D0FF91EF91BF91AF918C
:1006B0009F918F917F916F915F914F913F912F917A
:1006C0000F900FBE0F901F9018958FE89DEF90939D
:1006D000850080938400AFE6B0E08C918E7F8C9390
:1006E000E0E8F0E080818C7F8083E1E8F0E08081C9
:1006F000877E808380818460808380818C7F8083FB
:100700008C9181608C93089581E00895CF93DF935D
:1007100000D0CDB7DEB78091350191E0980F90936E
:100720003501882369F021E030E0309338012093CF
:100730003701809335010F900F90DF91CF9108958D
:10074000CE0101961FDE789425DEF8948091350164
:100750008150809335018A81882389F0809134010A
:1007600091E0980F90933401882349F021E030E024
:10077000309338012093370180933401DCCF80918E
:1007800034018823C1F2809136018111D4CF81E0F8
:1007900080933601789409DEF89480913401815079
:1007A0008093340180913601815080933601C3CF0C
:1007B000CF93DF931092430210924202FFD051DF99
:1007C000C0911601D0911701198218828ADE7DDF4F
:1007D00081E028813981232B09F080E08093420257
:1007E0007894789480914202811107C0FCDEF894DD
:1007F00090E080E0DF91CF91089581E028813981F8
:10080000232B09F480E0809343029091430281E01E
:10081000911180E08093420277DFE4CF34D008F476
:1008200081E0089504D06894B11174C0089557D040
:1008300088F09F5790F0B92F9927B751A0F0D1F0C9
:10084000660F771F881F991F1AF0BA95C9F712C053
:10085000B13081F05ED0B1E008955BC0672F782F92
:100860008827B85F39F0B93FCCF3869577956795BF
:10087000B395D9F73EF490958095709561957F4F2B
:100880008F4F9F4F0895990F0008550FAA0BE0E86E
:10089000FEEF16161706E807F907C0F01216130642
:1008A000E407F50798F0621B730B840B950B39F482
:1008B0000A2661F0232B242B252B21F408950A26E8
:1008C00009F4A140A6958FEF811D811D089557FD64
:1008D0009058440F551F59F05F3F71F04795880FAE
:1008E00097FB991F61F09F3F79F087950895121645
:1008F00013061406551FF2CF4695F1DF08C01616F1
:1009000017061806991FF1CF8695710561050894A1
:100910000895E894BB2766277727CB0197F90895B8
:10092000B2DF08F48FEF08951F920F920FB60F9267
:1009300011242F933F938F939F93AF93BF938091F5
:100940003A0190913B01A0913C01B0913D01309161
:10095000390123E0230F2D3758F50196A11DB11D54
:100960002093390180933A0190933B01A0933C017D
:10097000B0933D0180913E0190913F01A0914001D3
:10098000B09141010196A11DB11D80933E0190934C
:100990003F01A0934001B0934101BF91AF919F915E
:1009A0008F913F912F910F900FBE0F901F90189530
:1009B00026E8230F0296A11DB11DD2CF789484B5ED
:1009C000826084BD84B5816084BD85B5826085BD4B
:1009D00085B5816085BDEEE6F0E080818160808331
:1009E000E1E8F0E010828081826080838081816014
:1009F0008083E0E8F0E0808181608083E1EBF0E0DB
:100A0000808184608083E0EBF0E08081816080837E
:100A1000EAE7F0E080818460808380818260808367
:100A20008081816080838081806880831092C10092
:100A300008951F93CF93DF93182FEB0161E07DD0D2
:100A4000209731F460E0812FDF91CF911F91B1C0E9
:100A5000CF3FD10511F461E0F6CFE12FF0E0E85986
:100A6000FF4FE491E33031F140F4E130B1F0E23096
:100A7000E1F0C038D1057CF7E5CFE73029F1E83067
:100A800059F1E430B1F7809180008062809380005A
:100A9000D0938B00C0938A0004C084B5806884BD65
:100AA000C7BDDF91CF911F91089584B5806284BD49
:100AB000C8BDF7CF80918000806880938000D0937C
:100AC0008900C0938800EDCF8091B000806880934A
:100AD000B000C093B300E5CF8091B00080628093F6
:100AE000B000C093B400DDCF833081F028F48130B2
:100AF00099F08230A9F008958730A9F08830C9F0C4
:100B00008430B1F4809180008F7D03C0809180009B
:100B10008F7780938000089584B58F7784BD089582
:100B200084B58F7DFBCF8091B0008F778093B0002C
:100B300008958091B0008F7DF9CFCF93DF9390E03F
:100B4000FC01E458FF4F249180579F4FFC01849192
:100B50008823C9F090E0880F991FFC01E854FF4FEB
:100B6000A591B491FC01E255FF4FC591D49161115B
:100B70000DC09FB7F8948C91209582238C93888127
:100B8000282328839FBFDF91CF910895623051F4CD
:100B90009FB7F8943C91822F809583238C93E881B2
:100BA0002E2BEFCF8FB7F894EC912E2B2C938FBF79
:100BB000EACF1F93CF93DF93282F30E0F901E85954
:100BC000FF4F8491F901E458FF4FD491F901E057A8
:100BD000FF4FC491CC23A1F0162F811185DFEC2F9C
:100BE000F0E0EE0FFF1FE255FF4FA591B4918FB7D4
:100BF000F894EC91111108C0D095DE23DC938FBFDF
:100C0000DF91CF911F910895DE2BF8CFCF93DF9323
:100C1000282F30E0F901E859FF4F8491F901E45899
:100C2000FF4FD491F901E057FF4FC491CC2399F0C5
:100C300081115ADFEC2FF0E0EE0FFF1FEC55FF4F54
:100C4000A591B491EC91ED2381E090E009F480E06E
:100C5000DF91CF91089580E090E0FACFFC01918D73
:100C6000228D892F90E0805C9F4F821B91098F73AA
:100C700099270895FC01918D828D981731F0828D0E
:100C8000E80FF11D858D90E008958FEF9FEF089597
:100C9000FC01918D828D981761F0A28DAE0FBF2F50
:100CA000B11D5D968C91928D9F5F9F73928F90E0A6
:100CB00008958FEF9FEF0895FC01538D448D252FEC
:100CC00030E0842F90E0821B930B541710F0CF96E6
:100CD000089501970895FC01A48DA80FB92FB11DA7
:100CE000A35ABF4F2C91848D90E001968F73992762
:100CF000848FA689B7892C93A089B1898C91837040
:100D000080648C93938D848D981306C00288F38938
:100D1000E02D80818F7D80830895CF93DF93EC0158
:100D2000888D8823B1F0AA89BB89E889F9898C91DB
:100D300085FD03C0808186FD0CC00FB607FCF7CF90
:100D40008C9185FFF2CF808185FFEDCFCE01C3DF8F
:100D5000EACFDF91CF910895EF92FF920F931F9307
:100D6000CF93DF93EC0181E0888F9B8D8C8D98135E
:100D70001AC0E889F989808185FF15C09FB7F8946A
:100D8000EE89FF896083E889F989808183708064B6
:100D900080839FBF81E090E0DF91CF911F910F9101
:100DA000FF90EF900895F62E0B8D10E00F5F1F4F10
:100DB0000F731127E02E8C8D8E110BC00FB607FC20
:100DC000FACFE889F989808185FFF5CFCE0183DFED
:100DD000F2CFEB8DEC0FFD2FF11DE35AFF4FF082A8
:100DE0009FB7F8940B8FEA89FB8980818062D0CF0E
:100DF000CF92DF92EF92FF921F93CF93DF93EC019C
:100E00006A017B01122FE889F98982E08083C1148D
:100E100081EED806E104F10499F060E079E08DE319
:100E200090E0A7019601F5D02150310941095109FF
:100E30005695479537952795211580E1380790F00D
:100E4000E889F989108260E874E88EE190E0A701F2
:100E50009601DFD021503109410951095695479536
:100E600037952795EC85FD853083EE85FF852083BA
:100E7000188EEC89FD891083EA89FB898081806165
:100E80008083EA89FB89808188608083EA89FB8985
:100E9000808180688083EA89FB8980818F7D80835F
:100EA000DF91CF911F91FF90EF90DF90CF90089549
:100EB0001F920F920FB60F9211242F938F939F932F
:100EC000EF93FF93E0915201F09153018081E09103
:100ED0005801F091590182FD1BC0908180915B0106
:100EE0008F5F8F7320915C01821741F0E0915B016D
:100EF000F0E0EE5BFE4F958F80935B01FF91EF91E9
:100F00009F918F912F910F900FBE0F901F9018956A
:100F10008081F4CF1F920F920FB60F9211242F935E
:100F20003F934F935F936F937F938F939F93AF9371
:100F3000BF93EF93FF9382E491E0CDDEFF91EF91B9
:100F4000BF91AF919F918F917F916F915F914F91E1
:100F50003F912F910F900FBE0F901F901895E2E4D4
:100F6000F1E01382128288EE93E0A0E0B0E0848387
:100F70009583A683B7838CE191E09183808385EC90
:100F800090E09587848784EC90E09787868780EC53
:100F900090E0918B808B81EC90E0938B828B82EC44
:100FA00090E0958B848B86EC90E0978B868B118EEE
:100FB000128E138E148E0895AF92BF92CF92DF924D
:100FC000EF92FF920F931F93CF93DF936C017B01FE
:100FD0008B01040F151FEB015E01AE18BF08C0178F
:100FE000D10759F06991D601ED91FC910190F08102
:100FF000E02DC6010995892B79F7C501DF91CF91C5
:101000001F910F91FF90EF90DF90CF90BF90AF9026
:101010000895A1E21A2EAA1BBB1BFD010DC0AA1F39
:10102000BB1FEE1FFF1FA217B307E407F50720F051
:10103000A21BB30BE40BF50B661F771F881F991FCC
:101040001A9469F760957095809590959B01AC0115
:10105000BD01CF010895EE0FFF1F0590F491E02D23
:061060000994F894FFCF93
:101066000000007F430000000000000000CDCCCC53
:101076003D0000000000DF0100000000AC06DC07B8
:0A1086005C068D062E0648063A06A9
:00000001FF
