:1000000062C0000087C0000085C0000083C00000FF
:1000100081C000007FC000007DC000007BC00000E8
:1000200079C00000B2C1000075C000005AC40000D1
:1000300071C000006FC000006DC000006BC0000008
:1000400036C6000067C000000C94C0080C94F2088B
:1000500061C000005FC000005DC000005BC0000028
:1000600059C0000057C00000000000080002010055
:100070000003040700000000000000000102040863
:100080001020408001020408102001020408102002
:10009000040404040404040402020202020203032E
:1000A00003030303000000002300260029000000D2
:1000B0000000250028002B0000000000240027007D
:1000C0002A009B00170911241FBECFEFD8E0DEBF26
:1000D000CDBF11E0A0E0B1E0E4E5F4E102C005909D
:1000E0000D92A032B107D9F722E0A0E2B1E001C041
:1000F0001D92AE34B207E1F710E0C3E6D0E004C0D1
:100100002197FE010E94130AC136D107C9F7DCD13D
:100110000C94280A75CF70E023E0829FC00111245F
:10012000805E9E4F2FC570E023E0829FC0011124A6
:10013000805E9E4F63C580E291E08CC4611101C076
:1001400064C66130E9F362E0FBCFC8D621E00197D5
:1001500009F020E0822F0895FC0191E08091F901DF
:10016000811190E091830895CF92DF92EF92FF92F8
:100170006B017C019F7720E030E040E859E552D2E6
:1001800087FF26C020E030E040E05FE3C701B60112
:1001900041D387FD0CC020E030E040E05FE3C701C1
:1001A000B601C9D1FF90EF90DF90CF906BC220E0F5
:1001B00030E040E05FEBC701B6012CD318167CF4A9
:1001C00020E030E0A901C701B60128D36B017C0112
:1001D000C701B601FF90EF90DF90CF90089520E027
:1001E00030E040E05FE3C701B601A4D1FF90EF909B
:1001F000DF90CF9004C28091F9018F5F8A3018F4AC
:100200008093F90108951092F9010895CF92DF9239
:10021000EF92FF92C0900801D0900901E0900A018E
:10022000F0900B01A7019601609102027091030208
:100230008091040290910502F5D1882341F0C0928B
:100240000202D0920302E0920402F092050282E0E0
:100250007CDF882389F1C0900401D0900501E090F3
:100260000601F090070120E030E0A901C701B601C6
:10027000D9D160E087FD1AC020E030E044E353E4C8
:10028000C701B601C7D264EB181684F0C701B601E6
:100290006BDF6B017C0120E030E040E853E4C2D129
:1002A0006FEF87FF03C0C701B601C0D180E0FF90A8
:1002B000EF90DF90CF9037CFC0900001D090010138
:1002C000E0900201F0900301CECFCF92DF92EF9247
:1002D000FF92CF93DF93CAEFD1E01882809108019B
:1002E00090910901A0910A01B0910B01888799872B
:1002F000AA87BB87C12CD12C7601C394C982DA822C
:10030000EB82FC8260E082E019DF81E08D8322E3F2
:100310002AA393E39BA384E38CA385E38DA386E3C5
:100320008EA387E38FA388E388A789E389A781E366
:100330008AA730E33BA78CA78DA78EA72FA788ABF2
:1003400099AB8CE192E0998B888BCC86DD86EE862A
:10035000FF8664E080E0DF91CF91FF90EF90DF9027
:10036000CF90D9CE8091FA01811103C081E08093B2
:10037000FA01089540E855E260E070E090E080E026
:1003800000C026E089E591E09BC61F920F920FB650
:100390000F9211242F933F934F935F936F937F930B
:1003A0008F939F93AF93BF93EF93FF9383E88093D3
:1003B000B200809123018F5F80932301853019F46F
:1003C000109223012FD0FF91EF91BF91AF919F9198
:1003D0008F917F916F915F914F913F912F910F90EE
:1003E0000FBE0F901F90189583E88093B200A0E78E
:1003F000B0E08C918E7F8C93E0EBF0E080818C7F7D
:100400008083E1EBF0E08081877F8083808186605C
:10041000808380818E7F80838C9181608C9308950E
:1004200081E00895CF93DF9300D0CDB7DEB7809100
:10043000260191E0980F90932601882369F021E02E
:1004400030E03093290120932801809326010F90FA
:100450000F90DF91CF910895CE0101967DDE7894C3
:10046000CADEF894809126018150809326018A810A
:10047000882389F08091250191E0980F90932501C0
:10048000882349F021E030E03093290120932801AE
:1004900080932501DCCF809125018823C1F28091D2
:1004A00027018111D4CF81E0809327017894AEDEBB
:1004B000F894809125018150809325018091270136
:1004C000815080932701C3CFCF93DF9310924D02C9
:1004D00010924C0236D44EDFC0910C01D0910D0128
:1004E00019821882F2DE80DF81E028813981232B96
:1004F00009F080E080934C027894789480914C02CB
:10050000811107C02FDFF89490E080E0DF91CF9158
:10051000089581E028813981232B09F480E08093BC
:100520004D0290914D0281E0911180E080934C0248
:1005300077DFE4CF5058BB27AA270ED01AC10BD1C2
:1005400030F010D120F031F49F3F11F41EF400C1BF
:100550000EF4E095E7FBCDC0E92F1CD180F3BA176C
:10056000620773078407950718F071F49EF54BC175
:100570000EF4E0950B2EBA2FA02D0B01B9019001BE
:100580000C01CA01A0011124FF27591B99F0593F02
:1005900050F4503E68F11A16F040A22F232F342F4A
:1005A0004427585FF3CF469537952795A795F04098
:1005B0005395C9F77EF41F16BA0B620B730B840BAD
:1005C000BAF09150A1F0FF0FBB1F661F771F881F65
:1005D000C2F70EC0BA0F621F731F841F48F48795BD
:1005E00077956795B795F7959E3F08F0B3CF9395AC
:1005F000880F08F09927EE0F979587950895ECD00E
:1006000080F09F3740F491110EF4FEC060E070E07E
:1006100080E89FE3089526F01B16611D711D811D62
:100620006EC088C042D008F481E00895BBD088F045
:100630009F5790F0B92F9927B751A0F0D1F0660FCE
:10064000771F881F991F1AF0BA95C9F712C0B130E9
:1006500081F0D9D0B1E00895D6C0672F782F8827D0
:10066000B85F39F0B93FCCF3869577956795B39528
:10067000D9F73EF490958095709561957F4F8F4F97
:100680009F4F0895A9D080F09F3740F491110EF04C
:10069000BBC060E070E080E89FEB089526F41B1675
:1006A000611D711D811D2BC045C0990F0008550F9C
:1006B000AA0BE0E8FEEF16161706E807F907C0F0E8
:1006C00012161306E407F50798F0621B730B840BF0
:1006D000950B39F40A2661F0232B242B252B21F4CA
:1006E00008950A2609F4A140A6958FEF811D811D6A
:1006F000089597F99F6780E870E060E00895882387
:1007000071F4772321F09850872B762F07C066234A
:1007100011F499270DC09051862B70E060E02AF00B
:100720009A95660F771F881FDAF7880F9695879539
:1007300097F908959F3F31F0915020F48795779570
:100740006795B795880F911D9695879597F90895A8
:100750009FEF80EC089500240A94161617061806D9
:100760000906089500240A941216130614060506B5
:100770000895092E0394000C11F4882352F0BB0F46
:1007800040F4BF2B11F460FF04C06F5F7F4F8F4FA9
:100790009F4F089557FD9058440F551F59F05F3FE4
:1007A00071F04795880F97FB991F61F09F3F79F093
:1007B00087950895121613061406551FF2CF469515
:1007C000F1DF08C0161617061806991FF1CF869597
:1007D0007105610508940895E5DFA0F0BEE7B9173B
:1007E00088F4BB279F3860F41616B11D672F782F49
:1007F0008827985FF7CF869577956795B11D939574
:100800009639C8F30895E894BB2766277727CB016C
:1008100097F908954ADF08F48FEF08950BD0A9CF18
:100820009ADF28F09FDF18F0952309F062CF90CF70
:100830001124EACFAFDFA0F3959FD1F3950F50E0DD
:10084000551F629FF001729FBB27F00DB11D639F82
:10085000AA27F00DB11DAA1F649F6627B00DA11D28
:10086000661F829F2227B00DA11D621F739FB00DCE
:10087000A11D621F839FA00D611D221F749F33273E
:10088000A00D611D231F849F600D211D822F762FD7
:100890006A2F11249F5750408AF0E1F088234AF0D4
:1008A000EE0FFF1FBB1F661F771F881F9150504020
:1008B000A9F79E3F510570F01CCFA6CF5F3FECF328
:1008C000983EDCF3869577956795B795F795E7950C
:1008D0009F5FC1F7FE2B880F911D9695879597F91D
:1008E00008951F920F920FB60F9211242F933F93EA
:1008F0004F935F936F937F938F939F93AF93BF9328
:10090000EF93FF9380912B0187FF27C01092850002
:100910001092840080912B018F5F80932B01809136
:100920002B01082E000C990B20912A01281719067B
:1009300029F024F080912B018C30D4F18091840037
:1009400090918500049680349C4908F479C0809188
:10095000840090918500049675C080912B01082E2B
:10096000000C990B20912A012817190699F294F28C
:10097000E0912B018E2FEE0F990BFC01EE0FFF1F64
:10098000E80FF91FE45DFE4F808186FFC3CFE09141
:100990002B018E2FEE0F990BFC01EE0FFF1FE80FBE
:1009A000F91FE45DFE4F808160E08F736AD2B2CFA1
:1009B0002091840030918500E0912B018E2FEE0F65
:1009C000990BFC01EE0FFF1FE80FF91FE45DFE4FCE
:1009D00081819281820F931F909389008093880078
:1009E000E0912B018E2FEE0F990BFC01EE0FFF1FF4
:1009F000E80FF91FE45DFE4F808186FF10C0E09193
:100A00002B018E2FEE0F990BFC01EE0FFF1FE80F4D
:100A1000F91FE45DFE4F808161E08F7332D2FF9158
:100A2000EF91BF91AF919F918F917F916F915F9166
:100A30004F913F912F910F900FBE0F901F901895DF
:100A400080E49CE990938900809388008FEF8093E5
:100A50002B01E5CFFC0190912A019C3098F481E0B4
:100A6000890F80932A019083892F90E0FC01EE0F7B
:100A7000FF1FE80FF91FE45DFE4F88EB9BE09283B8
:100A8000818308958FEF80830895DF92EF92FF9224
:100A90000F931F93CF93DF93EC01D62E7A01890138
:100AA00088818C3008F065C061E08D2DAED18881E1
:100AB000282F30E0F901EE0FFF1FE20FF31FE45D76
:100AC000FE4F9D2D9F736081607C692B608320E2C7
:100AD00032E02E193F0937FF02C02D5F3F4F359599
:100AE000279535952795298320E639E0201B310B82
:100AF00037FF02C02D5F3F4F3595279535952795D8
:100B00002A832CE0622F3BD4829FB001112430E075
:100B100020E0AB01420F531FFA01EE0FFF1FE40F5D
:100B2000F51FE45DFE4F908196FD16C02F5F3F4F8D
:100B30002C30310571F781110FC01092800082E0D6
:100B4000809381001092850010928400B19A809168
:100B50006F00826080936F00E8818E2F90E0FC012F
:100B6000EE0FFF1FE80FF91FE45DFE4F80818064E8
:100B700080838881DF91CF911F910F91FF90EF903B
:100B8000DF90089520E639E040E252E07ECFDC01BC
:100B9000EC91EC3090F511968C91119728E830E0AB
:100BA000281B310987FD3395220F331F220F331F76
:100BB0006217730784F012968C9128E532E0281BA7
:100BC000310987FD3395220F331F220F331F621720
:100BD00073070CF49B0122503109220F331F4FB7CA
:100BE000F8948E2F90E0FC01EE0FFF1FE80FF91F25
:100BF000E45DFE4F328321834FBF0895AF92BF92D1
:100C0000CF92DF92EF92FF920F931F93CF93DF93D8
:100C1000EC01603282E078070CF03DC0653B710565
:100C200014F064EB70E0898148E8A42EB12CA81A76
:100C3000B10887FDB394AA0CBB1CAA0CBB1C0B2CDF
:100C4000000CCC08DD0877FF02C070E060E0072EE2
:100C5000000C880B990B2A8108E512E0021B110990
:100C600027FD1395000F111F000F111F012E000CFF
:100C7000220B330B3F932F931F930F9314EBE12E13
:100C8000F12C00E010E020E030E0A9012AD30F9021
:100C90000F900F900F90CE01DF91CF911F910F9188
:100CA000FF90EF90DF90CF90BF90AF9070CF1F92EA
:100CB0000F920FB60F9211242F933F938F939F9310
:100CC000AF93BF938091510190915201A091530134
:100CD000B09154013091500123E0230F2D3758F586
:100CE0000196A11DB11D2093500180935101909355
:100CF0005201A0935301B0935401809155019091FA
:100D00005601A0915701B09158010196A11DB11D46
:100D10008093550190935601A0935701B0935801C9
:100D2000BF91AF919F918F913F912F910F900FBEE7
:100D30000F901F90189526E8230F0296A11DB11D54
:100D4000D2CF789484B5826084BD84B5816084BD3F
:100D500085B5826085BD85B5816085BDEEE6F0E034
:100D6000808181608083E1E8F0E010828081826090
:100D70008083808181608083E0E8F0E08081816011
:100D80008083E1EBF0E0808184608083E0EBF0E041
:100D9000808181608083EAE7F0E0808184608083E5
:100DA000808182608083808181608083808180688F
:100DB00080831092C1000895833081F028F481303F
:100DC00099F08230A9F008958730A9F08830C9F0F1
:100DD0008430B1F4809180008F7D03C080918000C9
:100DE0008F7780938000089584B58F7784BD0895B0
:100DF00084B58F7DFBCF8091B0008F778093B0005A
:100E000008958091B0008F7DF9CFCF93DF9390E06C
:100E1000FC01E458FF4F249180579F4FFC018491BF
:100E20008823C9F090E0880F991FFC01E854FF4F18
:100E3000A591B491FC01E255FF4FC591D491611188
:100E40000DC09FB7F8948C91209582238C93888154
:100E5000282328839FBFDF91CF910895623051F4FA
:100E60009FB7F8943C91822F809583238C93E881DF
:100E70002E2BEFCF8FB7F894EC912E2B2C938FBFA6
:100E8000EACF1F93CF93DF93282F30E0F901E85981
:100E9000FF4F8491F901E458FF4FD491F901E057D5
:100EA000FF4FC491CC23A1F0162F811185DFEC2FC9
:100EB000F0E0EE0FFF1FE255FF4FA591B4918FB701
:100EC000F894EC91111108C0D095DE23DC938FBF0C
:100ED000DF91CF911F910895DE2BF8CFCF93DF9351
:100EE000282F30E0F901E859FF4F8491F901E458C7
:100EF000FF4FD491F901E057FF4FC491CC2399F0F3
:100F000081115ADFEC2FF0E0EE0FFF1FEC55FF4F81
:100F1000A591B491EC91ED2381E090E009F480E09B
:100F2000DF91CF91089580E090E0FACFFC01918DA0
:100F3000228D892F90E0805C9F4F821B91098F73D7
:100F400099270895FC01918D828D981731F0828D3B
:100F5000E80FF11D858D90E008958FEF9FEF0895C4
:100F6000FC01918D828D981761F0A28DAE0FBF2F7D
:100F7000B11D5D968C91928D9F5F9F73928F90E0D3
:100F800008958FEF9FEF0895FC01538D448D252F19
:100F900030E0842F90E0821B930B541710F0CF9613
:100FA000089501970895FC01A48DA80FB92FB11DD4
:100FB000A35ABF4F2C91848D90E001968F7399278F
:100FC000848FA689B7892C93A089B1898C9183706D
:100FD00080648C93938D848D981306C00288F38966
:100FE000E02D80818F7D80830895CF93DF93EC0186
:100FF000888D8823B1F0AA89BB89E889F9898C9109
:1010000085FD03C0808186FD0CC00FB607FCF7CFBD
:101010008C9185FFF2CF808185FFEDCFCE01C3DFBC
:10102000EACFDF91CF910895EF92FF920F931F9334
:10103000CF93DF93EC0181E0888F9B8D8C8D98138B
:101040001AC0E889F989808185FF15C09FB7F89497
:10105000EE89FF896083E889F989808183708064E3
:1010600080839FBF81E090E0DF91CF911F910F912E
:10107000FF90EF900895F62E0B8D10E00F5F1F4F3D
:101080000F731127E02E8C8D8E110BC00FB607FC4D
:10109000FACFE889F989808185FFF5CFCE0183DF1A
:1010A000F2CFEB8DEC0FFD2FF11DE35AFF4FF082D5
:1010B0009FB7F8940B8FEA89FB8980818062D0CF3B
:1010C000CF92DF92EF92FF921F93CF93DF93EC01C9
:1010D0006A017B01122FE889F98982E08083C114BB
:1010E00081EED806E104F10499F060E079E08DE347
:1010F00090E0A70196014FD12150310941095109D2
:101100005695479537952795211580E1380790F03A
:10111000E889F989108260E874E88EE190E0A7011F
:10112000960139D121503109410951095695479508
:1011300037952795EC85FD853083EE85FF852083E7
:10114000188EEC89FD891083EA89FB898081806192
:101150008083EA89FB89808188608083EA89FB89B2
:10116000808180688083EA89FB8980818F7D80838C
:10117000DF91CF911F91FF90EF90DF90CF90089576
:101180001F920F920FB60F9211242F938F939F935C
:10119000EF93FF93E0916901F0916A018081E09102
:1011A0006F01F091700182FD1BC0908180917201EE
:1011B0008F5F8F7320917301821741F0E09172016C
:1011C000F0E0E75AFE4F958F80937201FF91EF9107
:1011D0009F918F912F910F900FBE0F901F90189598
:1011E0008081F4CF1F920F920FB60F9211242F938C
:1011F0003F934F935F936F937F938F939F93AF939F
:10120000BF93EF93FF9389E591E0CDDEFF91EF91DE
:10121000BF91AF919F918F917F916F915F914F910E
:101220003F912F910F900FBE0F901F901895E9E5F9
:10123000F1E01382128288EE93E0A0E0B0E08483B4
:101240009583A683B78382E191E09183808385ECC7
:1012500090E09587848784EC90E09787868780EC80
:1012600090E0918B808B81EC90E0938B828B82EC71
:1012700090E0958B848B86EC90E0978B868B118E1B
:10128000128E138E148E0895AF92BF92CF92DF927A
:10129000EF92FF920F931F93CF93DF936C017B012B
:1012A0008B01040F151FEB015E01AE18BF08C017BC
:1012B000D10759F06991D601ED91FC910190F0812F
:1012C000E02DC6010995892B79F7C501DF91CF91F2
:1012D0001F910F91FF90EF90DF90CF90BF90AF9054
:1012E00008954F925F926F927F92AF92BF92CF928A
:1012F000DF92EF92FF920F931F93CF93DF93CDB7BF
:10130000DEB729013A019B01AC01241935094609D0
:10131000570989899A89AB89BC89BC01CD016A19B1
:101320007B098C099D091CD0A80197012419350956
:101330004609570952D0CA01B9016A0D7B1D8C1D9F
:101340009D1DDF91CF911F910F91FF90EF90DF9046
:10135000CF90BF90AF907F906F905F904F90089527
:10136000DB018F939F9355D0BF91AF91A29F800DCA
:10137000911DA39F900DB29F900D11240895991B6C
:1013800079E004C0991F961708F0961B881F7A957C
:10139000C9F780950895A1E21A2EAA1BBB1BFD0177
:1013A0000DC0AA1FBB1FEE1FFF1FA217B307E40744
:1013B000F50720F0A21BB30BE40BF50B661F771F9C
:1013C000881F991F1A9469F760957095809590957C
:1013D0009B01AC01BD01CF010895052E97FB16F4CA
:1013E00000940FD057FD05D0D6DF07FC02D046F49D
:1013F00008C050954095309521953F4F4F4F5F4F16
:10140000089590958095709561957F4F8F4F9F4F70
:1014100008950FD0A59F900DB49F900DA49F800DAF
:10142000911D11240895EE0FFF1F0590F491E02DFA
:101430000994A29FB001B39FC001A39F700D811DAD
:101440001124911DB29F700D811D1124911D0895CD
:04145000F894FFCF3E
:101454000000000000003443CDCCCC3DF601000078
:10146400000014084409C407F5079607B007A2074B
:00000001FF
