:1000000061C0000086C0000084C0000082C0000003
:1000100080C000007EC000007CC000007AC00000EC
:1000200078C00000CBC3000074C0000072C00000A4
:1000300070C000006EC000006CC000006AC000000C
:1000400055C5000066C000000C943A080C946C087A
:1000500060C000005EC000005CC000005AC000002C
:1000600058C0000056C00000000000080002010057
:100070000003040700000000000000000102040863
:100080001020408001020408102001020408102002
:10009000040404040404040402020202020203032E
:1000A00003030303000000002300260029000000D2
:1000B0000000250028002B0000000000240027007D
:1000C0002A00910811241FBECFEFD8E0DEBFCDBFBC
:1000D00011E0A0E0B1E0EAE2F2E102C005900D9289
:1000E000AC31B107D9F722E0ACE1B1E001C01D921B
:1000F000A936B207E1F710E0C2E6D0E004C02197CC
:10010000FE010E940D09C136D107C9F7F6D30C9440
:10011000130976CF0895CF92DF92EF92FF92CF939B
:10012000882331F16A017B01CFEFC80F20E030E076
:10013000A901CB01B60117D487FF10C0C701B601D2
:1001400090581AD49B01AC016C2F70E090E080E0D5
:10015000CF91FF90EF90DF90CF90ACC0C701B60178
:1001600006D48C2FCF91FF90EF90DF90CF9043C5B6
:10017000CF91FF90EF90DF90CF9008950F931F9352
:100180008B019C0183E036952795179507958A95F5
:10019000D1F7045E1E4F462F477021E030E0F90191
:1001A00002C0EE0FFF1F4A95E2F7AF01F801208170
:1001B0002423CB010196211102C090E080E01F9121
:1001C0000F9108950F931F938B019C0183E0369547
:1001D0002795179507958A95D1F7677081E090E08C
:1001E00001C0880F6A95EAF7F801E45EFE4F2081AE
:1001F000452B31F48095822380831F910F910895C0
:10020000822BFACF2F923F924F925F926F927F9202
:100210008F929F92AF92BF92CF92DF92EF92FF9216
:100220000F931F93CF93DF93D62EC72E782E692E70
:1002300049015A01280161E08D2D61D5CD2DDC2DBC
:100240008E010F5F1F4FA8016D2D7C2D872D962DE0
:10025000B9DF20E030E0A901C201B70143D418168C
:1002600054F4C201B70188D32B01C501B40184D372
:10027000A201CE0122D0C801DF91CF911F910F9131
:10028000FF90EF90DF90CF90BF90AF909F908F90B6
:100290007F906F905F904F903F902F9008958823AC
:1002A00041F08150682F70E090E080E050E040E045
:1002B00089CF0895862FB9019EC49C01FC01E8599D
:1002C000FF4FE491E33059F138F4E13009F1E230C5
:1002D00019F160E0822F4FC5E730C1F1E83009F431
:1002E00041C0E430B1F7809180008C7F82608093C0
:1002F000800090918100907E9061692B60938100D5
:1003000050938700409386008091800080621BC0DC
:1003100084B5806884BDDDCF84B58062FBCF8091D9
:1003200080008C7F82608093800090918100907E1D
:100330009061692B60938100509387004093860001
:1003400080918000806880938000C3CF8091B0004E
:1003500080688093B0008091B100887F682B6093A3
:10036000B100B7CF8091B0008062F3CF611101C0BE
:10037000C6C46130E9F362E0FBCF662311F061E0AF
:10038000FAC460E0FDCF24D521E0019709F020E018
:10039000822F089560E070E080E89FE7089560E0B4
:1003A00070E080E89FE7089560E070E080E89FEFEC
:1003B000089560E070E080E89FEF089560E070E0ED
:1003C00080EC9FEF089560E070E080EC9FEF08956F
:1003D000F5DF6093DE017093DF018093E00190937D
:1003E000E101F1DF6093D2017093D3018093D401D6
:1003F0009093D501CFDF6093DA017093DB01809396
:10040000DC019093DD01CBDF6093D6017093D701BF
:100410008093D8019093D901C7DF6093E201709374
:10042000E3018093E4019093E501C3DF6093E6016B
:100430007093E7018093E8019093E9010895FC012E
:1004400091E080916602811190E0918308958091FE
:1004500066028F5F8A3018F48093660208951092C6
:1004600066020895CF92DF92EF92FF920F931F934F
:10047000CF93DF93C0900401D0900501E090060176
:10048000F0900701A70196016091000270910102AE
:10049000809102029091030266D2882341F0C092BB
:1004A0000002D0920102E0920202F092030288E080
:1004B0006ADFC82FC0900001D0900101E0900201D6
:1004C000F0900301A701960160910C0270910D025A
:1004D00080910E0290910F0246D2882341F0C09283
:1004E0000C02D0920D02E0920E02F0920F0285E013
:1004F0004ADF9091600291112DC081E080936002EB
:1005000080936102D0E0C0E060E010E082E035DF7F
:10051000612F83E032DF6091F4017091F5018091E9
:10052000F6019091F7012ADE8C019093F3018093FC
:10053000F201BE01DD0F880B990B4CD2AB01BC015F
:10054000C801DF91CF911F910F91FF90EF90DF9045
:10055000CF90E1CD90916102913059F48111D2CFC9
:1005600082E08093610290936202CFEFD0E061E07D
:10057000CCCF882321F01092620281E0C1CF80911C
:100580006202813051F4CC2381F382E080936202D5
:10059000CFEFD0E060E011E0B9CFC111F9CF81E039
:1005A00080936202E2CF8F929F92AF92BF92DF92CE
:1005B000EF92FF920F931F93CF93DF9384E090E02D
:1005C00007DFCAEED1E01E8600E011E0F801848169
:1005D0009581A681B7818E8B9F8BA88FB98F812C37
:1005E000912C540183948F86988AA98ABA8A60E0F4
:1005F00088E0BCDEDD24D394DB8A1A8EF80180818A
:100600009181A281B3818AA39BA3ACA3BDA38B8E4E
:100610009C8EAD8EBE8E60E085E0A8DEDF8E1092EF
:1006200050028092510290925202A0925302B092D4
:10063000540261E082E09ADED09255021092580294
:100640008092590290925A02A0925B02B0925C0290
:1006500061E083E08BDED0925D02188222E32EAB54
:1006600093E39FAB84E388AF85E389AF86E38AAFEA
:1006700087E38BAF88E38CAF89E38DAF81E38EAFE7
:1006800030E33FAF80932A0280932B0280932C02A9
:1006900020932D0280932E0290932F0280E292E00D
:1006A0009F838E8389E090E0A0E0B0E08A879B87FB
:1006B000AC87BD871D8289829A82AB82BC82E12C85
:1006C000F12C8701A801970169E070E080E090E0DB
:1006D00099DD998788876A857B858C859D854EDD28
:1006E0009987888717DDDD82DF91CF911F910F9168
:1006F000FF90EF90DF90BF90AF909F908F90089504
:100700008091F801811103C081E08093F80180910C
:100710000402811103C081E08093040280915002A1
:10072000811103C081E080935002809158028111B1
:1007300003C081E0809358028091EA01811132C0A8
:1007400081E08093EA018091EB019091EC01A0910E
:10075000ED01B091EE010197A105B10519F5809168
:10076000EF018823F9F06091F4017091F501809117
:10077000F6019091F70102DD9093F3018093F2016D
:1007800040E050E0BA01C7DC6091F4017091F501DE
:100790008091F6019091F701F1DC9093F301809341
:1007A000F2017DCD089540E855E260E070E090E010
:1007B00080E000C026E085E391E0FCC31F920F9229
:1007C0000FB60F9211242F933F934F935F936F9324
:1007D0007F938F939F93AF93BF93EF93FF9383E8A0
:1007E0008093B200809125018F5F80932501853031
:1007F00019F4109225012FD0FF91EF91BF91AF9185
:100800009F918F917F916F915F914F913F912F9128
:100810000F900FBE0F901F90189583E88093B20041
:10082000A0E7B0E08C918E7F8C93E0EBF0E08081CC
:100830008C7F8083E1EBF0E08081877F8083808103
:100840008660808380818E7F80838C9181608C9391
:10085000089581E00895CF93DF9300D0CDB7DEB740
:100860008091280191E0980F90932801882369F0E6
:1008700021E030E030932B0120932A01809328015E
:100880000F900F90DF91CF910895CE010196D7DDA3
:100890007894DDDDF89480912801815080932801BF
:1008A0008A81882389F08091270191E0980F9093A5
:1008B0002701882349F021E030E030932B01209379
:1008C0002A0180932701DCCF809127018823C1F280
:1008D000809129018111D4CF81E0809329017894FE
:1008E000C1DDF89480912701815080932701809188
:1008F0002901815080932901C3CFCF93DF931092B8
:100900006802109267023CD14EDFC0910801D0917D
:1009100009011982188247DE80DF81E02881398150
:10092000232B09F080E0809367027894789480917B
:100930006702811107C0E4DEF89490E080E0DF9167
:10094000CF91089581E028813981232B09F480E03B
:10095000809368029091680281E0911180E0809319
:10096000670277DFE4CF71D008F481E0089504D006
:100970006894B111B1C0089594D088F09F5790F059
:10098000B92F9927B751A0F0D1F0660F771F881FB4
:10099000991F1AF0BA95C9F712C0B13081F09BD0F7
:1009A000B1E0089598C0672F782F8827B85F39F095
:1009B000B93FCCF3869577956795B395D9F73EF413
:1009C00090958095709561957F4F8F4F9F4F0895BB
:1009D000E89409C097FB3EF49095809570956195D9
:1009E0007F4F8F4F9F4F9923A9F0F92F96E9BB278F
:1009F0009395F695879577956795B795F111F8CF0B
:100A0000FAF4BB0F11F460FF1BC06F5F7F4F8F4F75
:100A10009F4F16C0882311F096E911C0772321F06B
:100A20009EE8872F762F05C0662371F096E8862F03
:100A300070E060E02AF09A95660F771F881FDAF75A
:100A4000880F9695879597F90895990F0008550F87
:100A5000AA0BE0E8FEEF16161706E807F907C0F044
:100A600012161306E407F50798F0621B730B840B4C
:100A7000950B39F40A2661F0232B242B252B21F426
:100A800008950A2609F4A140A6958FEF811D811DC6
:100A9000089557FD9058440F551F59F05F3F71F06E
:100AA0004795880F97FB991F61F09F3F79F08795D5
:100AB0000895121613061406551FF2CF4695F1DF5E
:100AC00008C0161617061806991FF1CF86957105EE
:100AD000610508940895E894BB2766277727CB0122
:100AE00097F90895B2DF08F48FEF08951F920F92DF
:100AF0000FB60F9211242F933F938F939F93AF9331
:100B0000BF9380912D0190912E01A0912F01B09162
:100B1000300130912C0123E0230F2D3758F5019639
:100B2000A11DB11D20932C0180932D0190932E01C6
:100B3000A0932F01B0933001809131019091320147
:100B4000A0913301B09134010196A11DB11D809394
:100B5000310190933201A0933301B0933401BF91DE
:100B6000AF919F918F913F912F910F900FBE0F905A
:100B70001F90189526E8230F0296A11DB11DD2CF14
:100B8000789484B5826084BD84B5816084BD85B568
:100B9000826085BD85B5816085BDEEE6F0E080812F
:100BA00081608083E1E8F0E0108280818260808350
:100BB000808181608083E0E8F0E0808181608083D3
:100BC000E1EBF0E0808184608083E0EBF0E0808105
:100BD00081608083EAE7F0E08081846080838081A7
:100BE000826080838081816080838081806880834F
:100BF0001092C10008951F93CF93DF93182FEB013C
:100C000061E07DD0209731F460E0812FDF91CF91BA
:100C10001F91B1C0CF3FD10511F461E0F6CFE12FB4
:100C2000F0E0E859FF4FE491E33031F140F4E13076
:100C3000B1F0E230E1F0C038D1057CF7E5CFE73024
:100C400029F1E83059F1E430B1F7809180008062F9
:100C500080938000D0938B00C0938A0004C084B539
:100C6000806884BDC7BDDF91CF911F91089584B581
:100C7000806284BDC8BDF7CF80918000806880937A
:100C80008000D0938900C0938800EDCF8091B000A0
:100C900080688093B000C093B300E5CF8091B0002E
:100CA00080628093B000C093B400DDCF833081F0C8
:100CB00028F4813099F08230A9F008958730A9F0A6
:100CC0008830C9F08430B1F4809180008F7D03C0FA
:100CD000809180008F7780938000089584B58F770E
:100CE00084BD089584B58F7DFBCF8091B0008F7750
:100CF0008093B00008958091B0008F7DF9CFCF939D
:100D0000DF9390E0FC01E458FF4F249180579F4F00
:100D1000FC0184918823C9F090E0880F991FFC01A1
:100D2000E854FF4FA591B491FC01E255FF4FC591E6
:100D3000D49161110DC09FB7F8948C9120958223B6
:100D40008C938881282328839FBFDF91CF910895BA
:100D5000623051F49FB7F8943C91822F80958323A1
:100D60008C93E8812E2BEFCF8FB7F894EC912E2B3C
:100D70002C938FBFEACF1F93CF93DF93282F30E0C0
:100D8000F901E859FF4F8491F901E458FF4FD491DC
:100D9000F901E057FF4FC491CC23A1F0162F811128
:100DA00085DFEC2FF0E0EE0FFF1FE255FF4FA5911E
:100DB000B4918FB7F894EC91111108C0D095DE234F
:100DC000DC938FBFDF91CF911F910895DE2BF8CF79
:100DD000CF93DF93282F30E0F901E859FF4F84913A
:100DE000F901E458FF4FD491F901E057FF4FC49146
:100DF000CC2399F081115ADFEC2FF0E0EE0FFF1FAA
:100E0000EC55FF4FA591B491EC91ED2381E090E07A
:100E100009F480E0DF91CF91089580E090E0FACF6F
:100E2000FC01918D228D892F90E0805C9F4F821B69
:100E300091098F7399270895FC01918D828D9817E0
:100E400031F0828DE80FF11D858D90E008958FEFD0
:100E50009FEF0895FC01918D828D981761F0A28D0E
:100E6000AE0FBF2FB11D5D968C91928D9F5F9F73CA
:100E7000928F90E008958FEF9FEF0895FC01538DBE
:100E8000448D252F30E0842F90E0821B930B541764
:100E900010F0CF96089501970895FC01A48DA80F36
:100EA000B92FB11DA35ABF4F2C91848D90E00196AC
:100EB0008F739927848FA689B7892C93A089B189CC
:100EC0008C91837080648C93938D848D981306C06D
:100ED0000288F389E02D80818F7D80830895CF93F0
:100EE000DF93EC01888D8823B1F0AA89BB89E8895A
:100EF000F9898C9185FD03C0808186FD0CC00FB6F9
:100F000007FCF7CF8C9185FFF2CF808185FFEDCF75
:100F1000CE01C3DFEACFDF91CF910895EF92FF9228
:100F20000F931F93CF93DF93EC0181E0888F9B8D0C
:100F30008C8D98131AC0E889F989808185FF15C0C6
:100F40009FB7F894EE89FF896083E889F9898081E9
:100F50008370806480839FBF81E090E0DF91CF91B8
:100F60001F910F91FF90EF900895F62E0B8D10E0DA
:100F70000F5F1F4F0F731127E02E8C8D8E110BC04A
:100F80000FB607FCFACFE889F989808185FFF5CF94
:100F9000CE0183DFF2CFEB8DEC0FFD2FF11DE35A75
:100FA000FF4FF0829FB7F8940B8FEA89FB8980810D
:100FB0008062D0CFCF92DF92EF92FF921F93CF93B8
:100FC000DF93EC016A017B01122FE889F98982E045
:100FD0008083C11481EED806E104F10499F060E049
:100FE00079E08DE390E0A7019601F5D02150310919
:100FF000410951095695479537952795211580E167
:10100000380790F0E889F989108260E874E88EE189
:1010100090E0A7019601DFD0215031094109510923
:101020005695479537952795EC85FD853083EE8558
:10103000FF852083188EEC89FD891083EA89FB895E
:10104000808180618083EA89FB89808188608083D8
:10105000EA89FB89808180688083EA89FB898081B5
:101060008F7D8083DF91CF911F91FF90EF90DF9074
:10107000CF9008951F920F920FB60F9211242F93C5
:101080008F939F93EF93FF93E0914501F091460179
:101090008081E0914B01F0914C0182FD1BC0908159
:1010A00080914E018F5F8F7320914F01821741F025
:1010B000E0914E01F0E0EB5CFE4F958F80934E0186
:1010C000FF91EF919F918F912F910F900FBE0F90F5
:1010D0001F9018958081F4CF1F920F920FB60F9238
:1010E00011242F933F934F935F936F937F938F932D
:1010F0009F93AF93BF93EF93FF9385E391E0CDDE92
:10110000FF91EF91BF91AF919F918F917F916F91DF
:101110005F914F913F912F910F900FBE0F901F90B5
:101120001895E5E3F1E01382128288EE93E0A0E0E7
:10113000B0E084839583A683B7838EE091E09183AA
:10114000808385EC90E09587848784EC90E0978796
:10115000868780EC90E0918B808B81EC90E0938B84
:10116000828B82EC90E0958B848B86EC90E0978B61
:10117000868B118E128E138E148E0895AF92BF92AD
:10118000CF92DF92EF92FF920F931F93CF93DF9353
:101190006C017B018B01040F151FEB015E01AE1882
:1011A000BF08C017D10759F06991D601ED91FC91A4
:1011B0000190F081E02DC6010995892B79F7C501D1
:1011C000DF91CF911F910F91FF90EF90DF90CF9023
:1011D000BF90AF900895A1E21A2EAA1BBB1BFD0180
:1011E0000DC0AA1FBB1FEE1FFF1FA217B307E40706
:1011F000F50720F0A21BB30BE40BF50B661F771F5E
:10120000881F991F1A9469F760957095809590953D
:101210009B01AC01BD01CF010895EE0FFF1F0590AA
:0A122000F491E02D0994F894FFCF3B
:10122A00CDCCCC3DCDCCCC3D6302000000008E0776
:0C123A00BE083E076F0710072A071C07BC
:00000001FF
